:10000000CCC50000DCC50000DAC50000D8C5000082
:10001000D6C500000C94A634D2C500000C94F80F8D
:10002000CEC50000CCC500000C94A6270C948A34E1
:100030000C9498340C948027C2C50000C0C5000001
:100040000C946434BCC50000BAC50000B8C50000FB
:10005000B6C500000C94F90FB2C50000B0C5000091
:10006000AEC50000ACC50000E62FF72F903009F4B4
:100070009395E5B8C4B8B6EFB0937A00A5E0A09325
:100080007B00A8E0A093810010928000AFEFA093C6
:100090008500A0938400A6E0A093360010928B0008
:1000A00010928A00B3E0AFE3A91B51E0392F33303F
:1000B0002AF0A05CBC4F53953350F9CFB093890020
:1000C000A0938800A0917A00A4FFFCCFB6EBB09378
:1000D0007A00A2E0A0936F00A9E0A093810062E003
:1000E000A0E0A0937B00A1E0A09353008895E5B821
:1000F000C4B884FF1AC0A8E10000AA95F1F7EF93F5
:10010000FF93E7B1F8B1A4E0C2FCA2E0C0FCA1E01B
:10011000BF2FBA2BAE2BB8B904B9A7B9E7B9F8B954
:10012000FF91EF910BC00C947300ACE10000000054
:10013000AA95F1F725B9E5B8000004B9A0918400AB
:10014000A0918500B0918900A395AB1760F7A091AD
:100150007A00A4FFF3CFB6EBB0937A006A9571F7FB
:100160006091780070917900308186FD630F619312
:10017000308186FD731F80FF7193652F4A9579F753
:1001800010926F0010928100B6E0B0937A0008954B
:10019000C801C101BA0118000820060606FEFE00CB
:1001A00000002060E0FFFFE06020060606FFFF067B
:1001B00006066060607F7F00000005084281898933
:1001C000760508C2A19189860508000402FF000E89
:1001D000100610FCF878F8D888959484000103097B
:1001E00008031080C0E0070F1F0E080610FFFF86EF
:1001F000F6E6C6FFFF616F67630E080210FFFFFFA0
:10020000FF11080310F6E6C66F67630C000A204171
:1002100022000010B0F0F0F0F8FEFE8C06030100A2
:100220000001037F7F3163C6CCD8C0C040949400E6
:10023000000F0703070C180C000220A192FFFFFF1C
:10024000FF85010F0007200010B0F0F0F0F8060362
:10025000010000010363C6CCD8C0C040000F0703F3
:10026000070C180104100102044E6F742063616CC6
:10027000696272617465642100B903870358032EB3
:10028000030703E402C302A4028802000014002949
:10029000003E005300690080009700AE00C600DFFA
:1002A00000F80012012D01490165018201A001BE83
:1002B00001DE01FF012102440268028E02B502DE66
:1002C000020903350364039403C803FE0337047370
:1002D00004B404F90443059305EA054906B3062965
:1002E00007AE074808FF08DE09FD0A930C480F997E
:1002F0001B0000000000000000000000001E212183
:10030000211200000080C0FF7F007E4A4A4A34006C
:10031000000000FCFC80C0E070381C0E07030100E8
:1003200000000303030303030303037F7F070F1C82
:10033000B8F0E0F0F800000000000000000000004D
:100340000000000000FC94959585010103070EFC58
:10035000F80000000000000000003E414141220082
:10036000E0C080C0E070180F07003C4252523400D9
:100370000000F8F800DEDE8C07070707060400001F
:1003800000000C0C0C0C0C0C0C0C0F0F007B7B31C8
:1003900063C68C98C0E00000000000000000000070
:1003A0000000FC949494940004060707070F18F0CB
:1003B000E00000000000000000000000003F21A15C
:1003C000920C0000000000FFFF003C42525234003B
:1003D00000000000F8F800EFEF86C6E6F686868794
:1003E00007000C0C0C0C0C0C0C0C0C0C0F0F00F779
:1003F000F76163676F617FFFE000000000000000AD
:10040000000000000048949595640000000000FF83
:10041000FF0000000000000000000000003F21215C
:10042000120C0000000000FFFF003C42525234005A
:100430000000E0C0800000FFFF0C0C0C0C0C0C0F47
:100440000F0003030303030303031F0F070303FF4B
:10045000FF606060606060E0E0000000000000009D
:10046000000000000048949595640000000000FF23
:10047000FF000000000000000000000000FFFF007F
:100480007824227E006452524C003C425252340086
:1004900086C6E6F6FEF7EFDEBEFEBE9E8E86000046
:1004A00000000C0C0C0C0C0C0D0D0D0703FFFF01D4
:1004B0000101010101010000000000000000000036
:1004C0000000000000FFFF00F04844FC0088FC80B2
:1004D00000000000000000000000000000FFFF001E
:1004E00000007C1211127C0000003C425252340089
:1004F00002868E9EBEFFFFBE9E8E8682000000009A
:1005000000000C0C0C0C0C0C0C0D0D0703FFFF0174
:1005100001010101000000000000000000000000D7
:100520000000000000FFFF00000078848484480081
:100530000000F0F8FC1E4E27171717171717170F94
:100540001EFEFCF8F000E000000001070F0F2F2650
:10055000100C00000080C0E0F0FF7F3F8F601F00A4
:1005600000000000000000000038BCBEBF8FE71391
:10057000090402010000000000000000000000006B
:10058000001E3E5E5E447800000000000000000097
:100590000000FCFE0121DE8C080F07000607037037
:1005A000F88C0C8CF8700606070007060600FCFCA9
:1005B0008000FCFC04070300010001000C1E333323
:1005C0001E0C000000000000000000000000000001
:1005D00000000000000000001EFFFF1E00000000E1
:1005E0000C0C000000000B07000B070000000000CF
:1005F00000000088FEFE88FEFE880003030003035F
:10060000001C3E222323C68C0103020E0E07010CA0
:100610008CC06030180C03010000000303FC02E2F0
:100620009292927C030404040404010000160E005C
:100630000000000000000000000000F0FC060300C5
:1006400000000003060C0000000306FCF0000000A0
:100650000C0603000020A8F87070F8A80000000045
:10066000000000006060F8F8606000000001010018
:10067000000000000000000000080F0700000060FC
:10068000606060606060000000000000000000002A
:1006900000000000000606000000000080C060307E
:1006A000180C03010000000000FCFE432113FEFCB7
:1006B00001030604060301180C06FFFF00000000FA
:1006C00000070700000687C161311F0E07070404F9
:1006D0000406060203212121FFDE020604040407AA
:1006E000036070584CFEFF40000000000707001F29
:1006F0001F111111F1E102060404040703FCFE13AB
:100700001111F1E0030704040407030303C1E131FD
:100710001F0F00000707000000EEFF111111FFEE90
:10072000030704040407031E3F212121FFFE0004E8
:100730000404060301000018180000000000030371
:10074000000000000098980000000004070300006B
:1007500000002070D88C060200000000010302D8BF
:10076000D8D8D8D8D8D80000000000000000020671
:100770008CD8702000020301000000000607E1F1A0
:100780001F0E00000006060000FC027149494A7C69
:1007900001020404040000F8FE868186FEF80707C3
:1007A0000000000707FFFF212121FFDE07070404E7
:1007B000040703FCFE03010103060103060404060B
:1007C00003FFFF010103FEFC07070404060301FF0A
:1007D000FF212121010107070404040404FFFF2174
:1007E0002121010107070000000000FCFE03014178
:1007F000C3C601030604040307FFFF202020FFFFF8
:1008000007070000000707000001FFFF01000000CC
:10081000040707040000000000FFFF0003070404B2
:10082000070300FFFFD88C0603010707000103063A
:1008300004FFFF000000000007070404040404FF95
:10084000FE18E018FEFF07070000000707FFFF1C67
:1008500070C0FFFF07070000000707FCFE0301034D
:10086000FEFC01030604060301FFFF2121213F1EB8
:1008700007070000000000FCFE038103FEFC0103EB
:100880000604050205FFFFC1C1417F3E07070001C5
:100890000306040E1F113121E1C2030404040407FE
:1008A00003000303FFFF030300000007070000FF2E
:1008B000FF000000FFFF03070404040703FFFF001D
:1008C0000000FFFF00010306030100FFFF00E0003E
:1008D000FFFF00010701070100038FFC70FC8F037D
:1008E00006070100010706001F3FE0E03F1F000070
:1008F000000707000081C16131190F0707070404D1
:100900000404040000FFFF010100000007070404C5
:10091000000C183060C080000000000000010300DF
:10092000000101FFFF0000000404070700040603A4
:1009300001030604000000000000000000000000A9
:100940000000040404040404040000000E16000067
:100950000000000000000080C8484858F0E003078D
:100960000404020707FFFF201010F0E0070704044B
:10097000040703E0F0180808181001030604040631
:1009800003E0F0101020FFFF03070404020707E054
:10099000F058485870600103060404060210FEFF78
:1009A000111306000007070000000070F888889007
:1009B000F8F802060404040703FFFF100808F8F023
:1009C00007070000000707000008FBFB000000000D
:1009D00000070700000000000000FBFB0003070405
:1009E000040703FFFFE0B018080007070001030633
:1009F00004000001FFFF000000000007070400F8EA
:100A0000F008F008F8F007070003000707F8F008FF
:100A10000808F8F007070000000707E0F0180818BA
:100A2000F0E001030604060301F8F0080808F8F0F6
:100A300007070101010100F0F8080808F0F80001BB
:100A40000101010707F8F0181808383007070000FF
:100A5000000000103868C888B83003070404040791
:100A6000030808FEFF08000000000307040603F85F
:100A7000F8000000F8F80307040404030700F8F87E
:100A80000000F8F800010306060301F8F800E00092
:100A9000F8F8010307010703011838E0C0E038182F
:100AA0000607010001070678F8808080F8F8020642
:100AB0000404040703181888C868381806070504D2
:100AC000040606002020FEDF0101000000030704E9
:100AD00004000000FFFF00000000000F0F000000F6
:100AE0000101DFFE202000040407030000020301CF
:100AF0000302030100000000000000E0F0180C18E1
:100B0000F0E00101010101010160FC0C0C0C0CFC86
:100B1000600003030303030300FEFCF8F060FEFE25
:100B200060070301000007070060FEFE60F0F8FCAC
:100B3000FE000707000001030760FEFE0000FEFE46
:100B4000600007070000070700FCFC0C0C0C0C0CF5
:100B50000C03030303030303030C0C0C0C0C0CFC2D
:100B6000FC030303030303030360606060606060D1
:100B700060000000000000000060E000C030C00025
:100B8000C0000106060106060630C000C030C000E5
:100B9000E001060606010606010011241FBECFEF84
:100BA000D8E0DEBFCDBF21E0A0E0B1E001C01D92E2
:100BB000AC3CB207E1F70E949F140C949C3D20CA04
:100BC0005D98559A80FD599A80FF5998519A539A89
:100BD0005A9867FD5B9A67FF5B985A9A5A9866FD28
:100BE0005B9A66FF5B985A9A5A9865FD5B9A65FF17
:100BF0005B985A9A5A9864FD5B9A64FF5B985A9A7C
:100C00005A9863FD5B9A63FF5B985A9A5A9862FD03
:100C10005B9A62FF5B985A9A5A9861FD5B9A61FFF2
:100C20005B985A9A5A9860FD5B9A60FF5B985A9A53
:100C30005D9A5A985B98089597FF09C08F939F9388
:100C40008DE221D69F918F91909581959F4F64E27F
:100C500071E04AE050E00E943B3D6CC6EDDF01C010
:100C6000EBDF80E210C68DE20EC68DE30CC6EF927C
:100C7000FF920F931F93182F062FF42E8DE791E00C
:100C800071D6EE24E0913F01F09140018685E8168F
:100C900011F4812F09C08485E81611F4802F04C057
:100CA0008585E81611F48F2DEED5E3948E2D8330D3
:100CB00049F71F910F91FF90EF900895EF92FF92E7
:100CC0000F931F93182F062FF42E80E0D5D483E8BE
:100CD00091E048D6EE248E2D2AD6C7DFE0913F0161
:100CE000F09140018685E81611F4812F09C08485B2
:100CF000E81611F4802F04C08585E81611F48F2DB5
:100D0000C2D5AFDFE3948E2D833029F71F910F9169
:100D1000FF90EF900895682F80E092E0662309F439
:100D200091E0623009F481E008950F93082FE4EB1D
:100D3000F1E0880F880FE80FF11D608171818281D9
:100D40009381643671058105910568F42091220133
:100D500027FD09C0802FDFDF692FF0D16EEF23E080
:100D60004DE12ED704C04FEF04E02DE140D679DFEE
:100D70000F910895863058F4E3EAF1E0E80FF11D91
:100D8000E80FF11D8081918163E025D76ACF089536
:100D90001F93182F80917A01882319F062DF80E079
:100DA00072D58DD384E791E0DDD5812F82958F7048
:100DB000E1DF812F8F70DEDF1F91089580910601A2
:100DC00082958F7018D08091060183701AD080911F
:100DD0000601DECFE7E9F1E0E80FF11D0895CF93BA
:100DE000F9DF9081C681C91710F405D001C012D077
:100DF00038DFCF910895EEDF8F93808198D58F9162
:100E000000C08F938CE391E0ADD58F91E3DF8681B5
:100E10008EC50895DFDF8F93868189D58F9100C0BD
:100E20008F9388E391E09ED58F91D4DF80817FC539
:100E3000089503D002D001D000D000D003D002D05A
:100E400001D000D000D003D002D001D000D000D01B
:100E5000A89503D002D001D000D000D003D002D09A
:100E600001D000D000D003D002D001D000D000D0FB
:100E700003D002D001D000D00000089582E090E0BD
:100E8000893C28F0885C48EC849FC00111240097BD
:100E900009F4089540918100477019F0D9DF019756
:100EA000F6CF8130910519F002975EE303C057E158
:100EB00080E090E04091B200450F4093B30042E0E3
:100EC0004093700047E043BF889546E043BF1092CF
:100ED0007000A895DCCF8F9384E0D1DF06C08F939C
:100EE000CDDF03C08F9381E0CADF8F911F93182F4E
:100EF000106410937C00E12FE07880912F01E817B7
:100F000059F0E0932F01AEDF8EE980937A0083E001
:100F100083BF889582E083BF20E030E0A901E0E054
:100F20001FC08EE980937A0083E083BF889582E0BA
:100F300083BF6091780070917900260F371F411DA3
:100F4000511DE43061F480913101803041F084E042
:100F50002030380720F417FD02C01068CACFEF5FB9
:100F600080912E01E817E8F260913201709133010F
:100F700017FF04C0609130017091310180E090E072
:100F80000E94B13B2FEF33E040E050E00E94F33B82
:100F9000B901CA0120912E0130E040E050E00E94EA
:100FA000F33BC9011F9108959B01281B390B50F099
:100FB000C9010895BC0180913201909133016817F5
:100FC000790718F4861B970B089580E090E0089548
:100FD00087E593E00E94763D2091360130913701FC
:100FE000280F391F209316013093170183E0283E04
:100FF000380720F0C901885E934002C080E090E08D
:1010000062E370E00E94CC3B683008F067E0E9E7FB
:10101000F2E0E60FF11DE60FF11D45915591259186
:10102000359162E3681B421B530B649FC001659FAF
:10103000900D1124499662E370E00E94CC3B620F50
:10104000731F70937E0160937D0189E593E00E9498
:101050006E3D992787FD909560913601709137011B
:10106000860F971F909331018093300190937901FF
:101070008093780108950F9221E08C32920710F44A
:101080008CE291E08C52914069E170E00E94CC3B8F
:1010900099E16B3210F0982F6BE2981BE1EDF2E0D2
:1010A000E60FF11DE60FF11D9F93CF010E946E3DEB
:1010B000482F3196CF010E946E3D582F3196CF01B7
:1010C0000E946E3D282F3196CF010E946E3D382F31
:1010D0006F91421B530B649FC001659F900D1124BB
:1010E0000C9669E170E00E94CC3B620F731FCB014C
:1010F0000F900895CF93DF9324E130E0B9010E946F
:10110000CC3BDC01EBE8F2E0E60FF71FE60FF71F40
:10111000C591D591459155914C1B5D0B4A9FC001DE
:101120004B9F900D5A9F900D1124B9010E94CC3B0A
:101130006C0F7D1FCB01DF91CF910895AEE1B0E040
:10114000E4EAF8E00C94DB3C662EB82E860F898327
:1011500020911A01283059F52091830130918401A2
:10116000409185015091860157FD15C01091920163
:1011700009C0CA01B9012AE0312D412D512D0E942B
:10118000F33B1F5F173FACF391F4243160E0360767
:101190004105510518F48FEF9FEF42C1173F39F415
:1011A00080E028178DE738074105410510F020E061
:1011B0003DE72C8B3D8B26EDA22EE6E6F2E0E60D18
:1011C000F11D859180608E87E6E6F2E0EB0DF11D62
:1011D000859180608F87E3E6F2E0E60DF11D759062
:1011E000E3E6F2E0EB0DF11DC59090EC692AB92A17
:1011F00081E0E82EF12C012D112D8E831F8218869F
:1012000019861A861B861C861D86188E198E1B8EC3
:101210001A8E0E94DA2380E088B960927C0022DE78
:101220003F8537B975B874B852E05A95F1F70000A8
:10123000000014B815B8DD243E8537B975B874B808
:1012400060927C00A895A0927A0080917A0086FD39
:10125000FCCF2090780030907900B0927C004C2D2B
:10126000E3D02091780030917900288B398B3F852D
:1012700037B9C5B8C4B8A895B0927C00A0927A00DE
:1012800080917A0086FDFCCF6091780070917900A2
:1012900060927C00472DC8D0409178005091790031
:1012A00014B8CB01820D931DE80EF91E011D111D0E
:1012B000EA82FB820C831D8388899989840F951F9C
:1012C0002E813F8168857985280F391F611D711D29
:1012D0002E833F836887798722E32417150648F019
:1012E00075B874B8C9DD14B815B8888D8395888F22
:1012F00007C0483E73E0570718F08A8D83958A8FA0
:10130000888999892817190658F03E8537B9C5B8D4
:10131000C4B8B2DD14B815B8898D8395898F07C01C
:10132000883E73E0970718F08B8D83958B8FD3944D
:101330005D2D5F3F49F05F3731F45C2D550FC50ED1
:10134000572D550F750E78CF40903B0150903C01C2
:10135000440C551C9201E4E0240D351DEA95E1F79B
:101360002901570168016E807F80888499842091CB
:101370001A012830C1F46C897D89812D912D655029
:101380007040804090409B01AC010E94B13B9B01AA
:10139000AC0160E779E786E190E00E94F33B621AD6
:1013A000730A840A950AA614B704C804D90428F459
:1013B0006A187B088C089D0803C0662477244301C3
:1013C000B20180E090E09301A4010E94B13B95013D
:1013D000A6010E94F33B8FE293E07981870F911D74
:1013E0000E946E3D682EC90160E170E00E94CC3B16
:1013F000260F371FC9016816190618F486199109B6
:101400000FC08C5E9F4F8615910540F48C899D8995
:10141000843981E1980710F00E944614812D912DA6
:101420006E96E2E10C94F73C1092810010928000DD
:1014300010926F0010928B0010928A0057E056BBFA
:101440005FEF509385005093840055E050937B00EC
:1014500056EB50937A0051E05093810058E25A9530
:10146000F1F7000045B944B955E05A95F1F700008D
:1014700014B815B81092810080917A0084FFFCCFD7
:1014800080937A000895CF93C82F1C161CF4E9DBD3
:10149000C150FBCFCF91089560933E01809303012B
:1014A00086958093B301660F660F660F6093040103
:1014B00008951092B30160E080E0EECF089581E0DE
:1014C0008093B30160E082E0E7CF089582E08093EB
:1014D000B30160E084E0E0CF089583E08093B3013E
:1014E00060E086E0D9CF089580913E0180930101AC
:1014F0008091B3018093020108958091020160916F
:101500000101880FC9CF0895CF93C82F692F81E0BB
:1015100057DB6C2F81E054DBCF910895682F80E07A
:101520004FCB0895CF93DF938AE2F8DF80E090E01D
:10153000EBDF80EA90E0E8DF8BE2F0DF80E090E034
:10154000E3DF80E890E0E0DF8CE2E8DFC0E0A89530
:10155000D0EA80911B0190911C01D6DFD150C9F7D0
:10156000CF5FC038A1F7A5DFDF91CF910895CF936A
:10157000DF9358985A985B985D98509A529A539A6C
:10158000559A75DC5D9A559A5998519A84E177DCA1
:10159000589A84E174DC8AE072DC81E1BFDF84E088
:1015A0006EDC86E2BBDF64E081E00ADB81EBB6DF64
:1015B0006EE081E005DB64E181E002DB80ECAEDF20
:1015C00080E09EE0A1DF81ECA9DF65E081E0F8DA50
:1015D00085ECA4DF80E498E397DF8AE39FDF65E092
:1015E00081E0EEDA86E39ADF8EE293E00E946E3DC0
:1015F000CBE1D1E088838DE293E00E946E3D898348
:101600008CE293E00E946E3DC5E9D1E088838BE2D5
:1016100093E00E946E3D89836CE181E0D1DA84EB36
:101620007DDF60E081E0CCDA7DDF89E277DF8AE090
:1016300026DCDF91CF91089590913E0184E1891BD2
:1016400022CF0895CF93C82FF7DF8091B3018F5F2A
:101650008093B301883038F087E08093B30181E054
:101660008093410102C0109241018091B3016C2F1F
:10167000880F12DFCF910895E5DF91C4089519DF37
:10168000DBDF17CF08951BDFD7DF19CF0895582F61
:1016900028E030E090E841E080E0652F642309F025
:1016A000892B440F969521503109B9F70895A4E08C
:1016B000B0E0EDE5FBE00C94DB3C9C838B83F42EE7
:1016C00010E0A62EB12CC501800F911F813A910523
:1016D0000CF08AC08E2D90E0AC014F0D511D4138A9
:1016E00051050CF081C0EA94EF0CE7FE02C04FE711
:1016F000E42E322F3270398321FF13C0019733E07B
:10170000959587953A95E1F7809FA001819F500DAF
:10171000909F500D11248B819C81840F951F9C8379
:101720008B8321702A83280191E0491A5108EF1414
:1017300008F45AC0C12CD12C8F2C912C140137E005
:10174000230E311CC016D10609F43DC08BE2E6DE43
:10175000C401DADEC101D8DE8AE2E0DE35016C0CBC
:101760007D1CC301D1DEC301CFDE8CE2D7DE3A811E
:10177000332341F0F201EC19FD098B819C81E80FC4
:10178000F91F04C0EB81FC81EC0DFD1D7490998163
:10179000911103C0872D7BDF782E88E0682E77FEBD
:1017A00005C080915C0190915D0104C080911B0196
:1017B00090911C01A9DE770C6A946110F0CF3FEF85
:1017C000C31AD30ABFCF8981882329F08B819C81DA
:1017D000801B910B04C08B819C81800F911F9C8387
:1017E0008B8398E0F90EA3CF2496E2E10C94F73CAA
:1017F000EF920F93482F8FEF93E090935D018093CA
:101800005C01242F2F7380E6289F90011124C901C9
:101810008F509D4F46FF02C028E001C028E520936D
:10182000050147FF03C01092000108C020E2209389
:101830000001209105012D5D2093050120E2E22E9B
:1018400008E120E0409100016091050130DF0F9137
:10185000EF900895EF920F93262FFC01649131963B
:101860004491319604913196E49030910001430FF8
:1018700030910501630F04961ADF0F91EF900895E0
:1018800060E0E8CF0895EF920F9320919501309199
:10189000960130935D0120935C0190913E019F5F22
:1018A00090933E0140910301282F30E0440F440FF4
:1018B000440F8C3098F4C90134E0880F991F3A9591
:1018C000E1F750E1E52E08E020E060910401875F38
:1018D000944FEDDE80910401885F23C02C513109C3
:1018E0005EE0529FC001539F900D112420E1E22E33
:1018F00007E020E0609104018F569A4FD8DE609196
:101900000401695F6093040140910301440F440F97
:10191000440F01E020E089EC95E0C9DE80910401EC
:101920008F5F80930401A8950F91EF9008958F5CCD
:10193000AACF0895CF93DF93EC018991882311F00A
:10194000A2DFFBCFDF91CF910895CF93DF93EC011E
:10195000FE018491882319F096DF2196F9CFDF915B
:10196000CF910895CF93DF93EC01CE010E946E3D9D
:10197000882319F088DF2196F8CFDF91CF91089561
:10198000EF920F93FC0104913196E49002968FDE62
:101990000F91EF9008950F938BE991E0E3DF409171
:1019A00091014D3F64F460917F01709180018091BD
:1019B00081019091820103E026E419D002C08FE3F7
:1019C00062DF0F910895909119019F70923071F428
:1019D00053DE84E690E0C6DFE0913F01F0914001E4
:1019E00022E04DE16FEF84819581EAC00895AEE079
:1019F000B0E0EDEFFCE00C94DB3C142F622E702E77
:101A00006B017C010F7080E389838A838B838C83D5
:101A10008D838E83F7FE0AC026D9F094E094D0948B
:101A2000C094C11CD11CE11CF11C04C075FE02C095
:101A30008BE229DF033071F0043099F00530C1F0FA
:101A40000630F1F0073021F174E6872E912CA12C9D
:101A5000B12C25C068EE862E63E0962EA12CB12C09
:101A60001EC050E1852E57E2952EA12CB12C17C037
:101A700040EA842E46E8942EAA24A394B12C0FC0E9
:101A800030E4832E32E4932E3FE0A32EB12C07C026
:101A900020E8822E26E9922E28E9A22EB12C9AE087
:101AA000292E312C412C512CC814D904EA04FB04F2
:101AB00070F0C701B6016B5F7F4F8F4F9F4FA20140
:101AC00091010E94F33B69017A011F5FEDCF81E133
:101AD000810F9BEA899F812D1124A82EA69486E070
:101AE000811B899F112D11241695912F990F190F84
:101AF000811B182F4E0187E0880E911C2AE0A4015B
:101B0000C701B6010E941A3DF40101900020E9F7D7
:101B100031977F01E818F9089E2C6701DD24812F99
:101B200090E004968C159D0514F4A3941D5F8A2DF6
:101B300090E0845D9F4F0E946E3DA82E74FE04C00D
:101B4000901610F40E1901C000E08E2C811A800E40
:101B5000181424F08EE297DE012F0E19111102C025
:101B600088EF882E912C10E0C00ED11EE82C082C96
:101B7000000CFF08892D90E08C159D05ACF4FC014C
:101B80003696E01BF10B81E090E08C0F9D1FE80F73
:101B9000F91F808178DE9394892D90E08E159F0542
:101BA00049F78EE270DEE6CFAA2011F08A2D6BDEB7
:101BB000662011F0862D67DE2E96E2E10C94F73C4C
:101BC0000F93362FBC0180E090E0022F242F432F8B
:101BD0000EDF0F9108950F93062FBC0180E090E077
:101BE00026E54DEF04DF0F9108950F93042F28E4AD
:101BF00040E0FDDE8AE747DE34D80F910895E82FF4
:101C0000F0E0EE0FFF1FE057FE4FA591B4919091C9
:101C10000001490F90910501690F20E0CD01B0CE80
:101C20000895CF93DF93C82FD62FE0913F01F09115
:101C3000400148E16EE18685E2DFE0913F01F091ED
:101C400040014D2F6C2F8485DADFE0913F01F09148
:101C5000400140E06EE18585D2DFDF91CF910895AC
:101C60001F93CF93DF935EDC80ECC2DD62E086E9F8
:101C700091E0F0DD80E8BCDD8FEC91E001DE60E01A
:101C800085E00ADC80E991E06DDE6AE085E004DC55
:101C900088E891E067DE88E99AE318D143DC83E4C1
:101CA000A7DD83E0A5DD8FED91E0EADD61E082E074
:101CB000F3DB8EE4E8DD0E9433068AEA91E052DE2F
:101CC0006BE082E0E9DB80E5DEDD0E9433068AEA34
:101CD00091E048DE88E99AE3F9D024DC81EC88DDE4
:101CE00081E886DD83E492E0CBDD60E085E0D4DB53
:101CF0008EE4C9DD0E94330685E4C5DD84EA91E007
:101D000031DE6AE086E0C8DB80E5BDDD0E94330697
:101D100085E4B9DD84EA91E025DE88E99AE3D6D04E
:101D200001DC81E465DD87E392E0AADD81E060DD2E
:101D30008BE092E0A5DD60E081E0AEDB8EE4A3DD28
:101D40000E94330684E49FDD84EA91E00BDE6AE0C2
:101D500082E0A2DB80E597DD0E94330684E493DD18
:101D600084EA91E0FFDD88E99AE3B0D0DBDB82EC26
:101D70003FDD82E83DDD81E092E082DD60E085E0EC
:101D80008BDB8EE480DD0E94330685E47CDD8FEA08
:101D900091E0E8DD6AE086E07FDB80E574DD0E94AB
:101DA000330685E470DD8FEA91E0DCDD88E99AE3B3
:101DB0008DD0B8DB82E41CDD89EF91E061DD82E04B
:101DC00017DD89EE91E05CDD61E081E065DB8EE4AA
:101DD0005ADD0E94330684E456DD8FEA91E0C2DDCD
:101DE0006BE082E059DB80E54EDD0E94330684E43F
:101DF0004ADD8FEA91E0B6DDC0E014E18C2F612F5F
:101E00000E94C03BD82F91110AC0811104C088E9FB
:101E10009AE35CD087DB60E08D2F880F3DDB8CE19F
:101E20008C0F31DDCF5FC43649F788E99AE34ED095
:101E300079DBDF91CF911F91089599B193FB992799
:101E400090F94999926080911101843050F08EE0B0
:101E500080930D0190930E011092120181E0809306
:101E6000110180911101E82FF0E0E35FFE4F308116
:101E7000931729F191111AC0E3E0E80FE370209164
:101E80001201323041F4F0E0E35FFE4F3081333035
:101E900069F42F5F09C0313049F4F0E0E35FFE4F91
:101EA0003081333019F4215020931201E1E0E80F22
:101EB000E370E0931101F0E0E35FFE4F90838091C7
:101EC000120187FD8195809313010895A0E0B0E091
:101ED000ECE6FFE00C94E43CE82ED92E53985198A0
:101EE0000E942D0710921201E0911101F0E031964D
:101EF000E370FF27E35FFE4F80EF8083C5E6D9E103
:101F00009CDF4F9906C00E943107D150C9F7C150DC
:101F1000B1F7CE2DDD2DF12C15E500E0BB24B394F7
:101F2000D7FD37C082E3C82E88DF0E943107CA94EC
:101F3000C110FACF110F4F9B1F5F1F731F3349F45E
:101F4000011103C0CE2DDD2D04E00F5F083C28F009
:101F500020C0111102C001111CC0A8951C161D063D
:101F600024F42A9711F4CFEFDFEF80911301882337
:101F700039F0F39480917B01811102C0B0927B0112
:101F800084E18F1568F680911201811102C0F12C55
:101F9000C7CF802FCDB7DEB7E9E00C94003DCF93DB
:101FA000A3DAC82F80914101882301F1813051F4D7
:101FB000C73041F463E18EE06FDA8BE264DC63E109
:101FC0008EE06ADA80E49FE181DF811104C08091B4
:101FD00013018111F7CFC73041F480914101813065
:101FE00021F460E08EE058DA27DB87DACF9108959C
:101FF0001895189530911801A0913F01B0914001BA
:10200000E7E9F1E080E090E08317B0F441911C969D
:102010002C911C97421719F04581241302C0019698
:10202000F3CFFC01EE0FFF1FED55FE4F20813181F4
:10203000293E334008F4089584E1089510921A016E
:10204000109218011092730110925101109219010F
:1020500010923D0110927A01EEE5F1E010821182BA
:102060001282EFE7F1E0108A82E0818B1092220168
:1020700017861686148215821682178281EF838B4B
:1020800008955E980E941C0780E090E01FCF08959D
:102090001F93CF93DF93162F17B818B8E82FF0E0EF
:1020A000ED59FD4F949195B9262F281BE20FF11D94
:1020B00027FDFA95E491E92BE4B90E947607EC013B
:1020C000812F0E947607AC012091320130913301BB
:1020D00036952795C9010397BE01625E7F4F86172B
:1020E000970778F4255E3F4FC217D30750F4BA0123
:1020F000625E7F4F8617970720F481E042175307EF
:1021000008F080E014B8DF91CF911F910895CF932C
:1021100061E080E0BDDFC82F62E080E0B9DFC80F7A
:1021200062E081E0B5DF8C0FCF910895AFE0B0E0C1
:10213000ECE9F0E10C94DB3CB82E10921A01807FA0
:10214000A9F4E5DF833009F09DC3ECD983E692E082
:1021500009DCB5D98FE397DB80ED97E0B7DE8B30F4
:10216000C8F4E0D98AE091E0FDDB8CC306E910E019
:10217000D9D983ED91E0F6DBCADF833021F41F5F0C
:10218000143010F007C010E088E20E943F070150B1
:1021900079F763C094D90E94C82781EB90E0E2DB15
:1021A00060E081E393E00E947B3D60E082E393E0A6
:1021B0000E947B3D60E080E393E00E947B3D60E015
:1021C00082E00E949E086C019A83898361E082E02C
:1021D0000E949E087C019C838B8360E081E00E94CA
:1021E0009E088C019E838D8323E040E26EEFC60142
:1021F000E7DC23E040E26EEFC701E2DC23E04DE1E3
:102200006EEFC801DDDC2AE5C216D10424F084E1BA
:1022100090E09A838983698181E393E00E947B3D0A
:102220008AE5E816F10424F084E190E09C838B8336
:102230006B8182E393E00E947B3D0A35110524F017
:1022400084E190E09E838D836D8180E393E00E9422
:102250007B3D82E080934101A2DEEB2DEF70EF87A2
:10226000E13011F018E749C1EE24E394F12C78EB4A
:10227000872E72ED972E77E4A72EB12C02E0E8E0CE
:10228000DE2EF0E23F2EC12C1E2D52E2252EFBD970
:10229000F6D984E5F8DAC7010E9427060E943106C4
:1022A0001130B9F484EE90E05DDB64E0809136019A
:1022B0009091370190DC03D98FED90E053DB809152
:1022C0007D0190917E010E9427068EEB80932E0166
:1022D000F0C0123091F52091320130913301A8E520
:1022E000BBE10E94313C24EC36E340E050E00E9428
:1022F000153C29013A0181E085B9F5E0F4B980E0A7
:102300000E946B07841995099A83898381E184B9B6
:1023100080E00E946B07841995099C838B8384E07D
:1023200085B984E184B981E00E946B07841995091D
:102330009E838D8389EC90E0AAC0133059F505B9CE
:102340002AE024B980E00E946B072091320130918D
:1023500033013695279538872F83821B930B9A83F9
:10236000898324B880E00E946B072F813885821B07
:10237000930B9C838B83D5B888E284B981E00E945B
:102380006B072F813885821B930B9E838D838BEB8C
:1023900090E07DC0143039F483E592E0E3DAB7DEF3
:1023A00081116DC275C01530B1F415B804B980E063
:1023B0000E946B079A838983D4B881E00E946B07DF
:1023C0009C838B8334B882E00E946B079E838D834D
:1023D0008BED90E05CC0163051F504B905B980E092
:1023E0000E946B072091320130913301821B930BC5
:1023F0009A838983D4B8D5B881E00E946B07209175
:10240000320130913301821B930B9C838B8334B850
:1024100035B882E00E946B07209132013091330180
:10242000821B930B9E838D8387ED90E030C0173025
:1024300079F52091320130913301A8E5BBE10E948A
:10244000313CA50194010E94F33B29013A0105B9F1
:10245000E3E0E4B980E00E946B07841995099A8350
:102460008983D5B8FCE0F4B981E00E946B07841938
:1024700095099C838B8335B820E324B982E00E94C0
:102480006B07841995099E838D8385EB90E06ADA4A
:1024900016D889819A810E941C060E9431068B8180
:1024A0009C810E941C060E9431068D819E810E94A3
:1024B0001C0617B818B814B815B888EE93E006DDF6
:1024C000143011F08B3020F4C39484E0C812DFCEB6
:1024D00088EE93E0FBDCEFEFEE1AFE0AF8E0EF1671
:1024E000F10409F0D0CEBECECED883E592E03ADA40
:1024F00084E60E943F07115019F009DE8111F4CFE4
:1025000011D88AEA90E02EDA23E04DE16FEF809156
:1025100034019091350154DB0E945F0A83EA90E018
:1025200021DA23E04DE16FEF80913B0190913C0176
:1025300047DB82E08093410132DD10921A010E9454
:10254000920A8FE990E00EDA60E082E00E94B02407
:1025500040908701509088016090890170908A01B5
:102560005C864B8661E082E00E94B0248090870107
:1025700090908801A0908901B0908A019E868D86F6
:1025800060E081E00E94B0240091870110918801F1
:102590001E830D8362E080E00E94B0248091870159
:1025A000909188019C838B8362E081E00E94B0243B
:1025B00080918701909188019A87898761E080E006
:1025C0000E94B024E0908701F0908801FA82E982AD
:1025D000C2010E943006C4010E943006B801110FEA
:1025E000880B990B03E026E444EF01DA2F852130B4
:1025F00021F080913A01823031F482E0E80EF11C42
:10260000F886EF8204C0F886EF8210923A018E01BC
:102610000F5F1F4F6E01EFE0CE0ED11CF8018191CC
:1026200091910A97853B9105D0F4EC15FD05B9F71A
:1026300040E5E42E43E0F42EF80160810E5F1F4F69
:102640006E5EC7010E947B3DFFEFEF1AFF0A0C157B
:102650001D0591F70E945F0A80EC91E083D982E02A
:10266000809341019CDC0E9458382F85213029F04D
:1026700080913A01823009F0EBC00E94920A80E01A
:1026800056D986E691E06ED982E051D984E290E095
:1026900069D920E4F22E10E03AE0832E912CA12C8F
:1026A000B12CCCDC10921A0160E082E00E94B024D0
:1026B0000091910120917F01309180014091810131
:1026C00050918201073F44F40F5FCA01B901A5018F
:1026D00094010E94F33BF6CF0093910120937F0178
:1026E000309380014093810150938201073F09F0AC
:1026F00097C0DA01C90180569109A109B109803951
:102700009545A105B10508F08BC0609193017091CA
:102710009401CB018B569F4F8B32914008F080C0C3
:102720001F5F153008F47DC087E593E00E94893D66
:102730000E94920A8DE190E015D9809193019091C9
:1027400094010E941C060E94E80718B881E087B92E
:1027500080E284B982E00E947607853D9340D4F7F9
:1027600014B8109231011092300182E00E94760775
:102770008C0180917801909179019093310180933F
:10278000300182E00E9476077C01EE0CFF1C109263
:1027900031011092300182E00E947607A09078010A
:1027A000B0907901B0923101A0923001800F911F59
:1027B0008C010E191F090E945F0A86E190E0D2D8B1
:1027C00089E593E00E946E3DD82E9501D8010E94C4
:1027D000403C97010F2C000C440B550B0E94153CFC
:1027E00013E01D0D120F612F89E593E00E947B3DE0
:1027F000812F012E000C990B0E941C060E94E807F5
:1028000082E080934101CBDB10923A0180E593E0B6
:102810000E946E3D682F83E593E00E947B3D18C0C7
:1028200010E00E945F0A60917F01709180018091A9
:1028300081019091820104E026E440919101D7D872
:102840000E941C0B88E20E943F07FA94F11029CFE6
:1028500089E180932E0180E00E946B3B0E94920AE6
:102860008AE091E07FD80E945F0A8AE492E07AD8F9
:1028700010921A0182E08093410191DB03C082E053
:10288000C82E06CE2F96E2E10C94F73C80913A01D7
:1028900081110DC080E593E00E946E3D61E0680FFC
:1028A00083E593E00E947B3D81E080933A010895A7
:1028B000EF92FF920F931F93CF93DF93D62FE82FC2
:1028C000F0E0EA59FD4FE491E8B9E7B915B8E62F11
:1028D000F0E0ED59FD4FE491E4B988E8E82E83E19A
:1028E000F82ECE2FCC0F8D2F0E946B078C01C4B910
:1028F0008E159F0510F47801F6CF892BD9F00E9430
:102900006D0A86E491E02ED8D80120EA36E841E04D
:1029100050E00E94463C28E937EB40E050E00E943E
:10292000F33BDA01C90122E041E467EF49D917B866
:1029300018B814B8CDB7DEB7E6E00C94033DA0E0BC
:10294000B0E0E5EAF4E10C94DB3C80E48AB98BB9B1
:10295000C6E8C0937A001092C1000E941E07D4B747
:1029600084B7877F84BF0FB6F894A89580916000E4
:10297000886180936000109260000FBEC093640075
:1029800088E380937E001092B00087E08093B100CE
:1029900078940E94B70AD3FD63C580E185BF84E0C7
:1029A00080931101C0E04F9905C00E943E07CF5FA0
:1029B000CC33C9F78FE59DE690930C0180930B0112
:1029C000CF3130F080E69DE690930C0180930B01AF
:1029D00010922F010E94C8279FE088E10FB6F8945B
:1029E000A895809360000FBE90936000CC33B9F03F
:1029F000C0E192E4C92E91E0D92E24E6E22E21E036
:102A0000F22E3CE0232EDDE040EFB42E53E3A52E62
:102A100061E2962E72E1872EE0E23E2E36C00E94E1
:102A20003A328111FCCFE4CF823009F460C18330A7
:102A300009F48AC18EEA92E00E94B20C86E992E023
:102A40000E94B20C0E945F0A80911801805D0E9472
:102A5000430C8AE20E94430C8CE391E00E94B20C8A
:102A60008CE792E00E94B20C86E00E94F80B00E432
:102A70001FE1C7B94F9BFECFC80128DA823308F4A3
:102A8000D1C40E943A328111FCCF0E94920A17B839
:102A9000D5DA0E94C8270E94590AF4D480913D01DA
:102AA000882379F00E945F0A8BE591E00E94B20CC6
:102AB00063E080913201909133018DD888EC0E94BF
:102AC0003F074F9915C00E94430B80E491E00E949C
:102AD000B20C17B883E00E94720763E04AE09C01E1
:102AE000429FC001439F900D112475D88CE3E7CF1E
:102AF0000E945F0A0E94DA2380911A01893021F531
:102B00000E94920A80E691E00E94B20C0E945F0A45
:102B100063E080915601909157015DD80E94310683
:102B200063E0809158019091590155D80E94310677
:102B300063E080915A0190915B014DD88AEC0E942C
:102B40003F0781E1F3DA69C483E593E00E946E3DBB
:102B5000182F80E593E00E946E3D181B10933A01F8
:102B600080E0E4DA0E94430B88EC92E00E94B20C11
:102B700042E061E080E0FAD442E060E081E0F6D437
:102B800041E062E080E0F2D441E060E082E0EED437
:102B900040E062E081E0EAD440E061E082E0E6D437
:102BA00080911A0181110EC00E94DA2360E082E058
:102BB0000E94B02461E082E00E94B02460E081E0E5
:102BC0000E94B0240E94920AD0924001C0923F011C
:102BD00080911A01863069F485EC0E94F80B60E15F
:102BE00088EF1FD866E080E00E944C0A8FE992E0EF
:102BF0000EC08730F1F484EC0E94F80B60E188EF9E
:102C000010D866E080E00E944C0A88EA92E00E94B8
:102C1000B20C66E082E00E944C0A84E791E00E94D8
:102C2000B20C62E080914601909147010E94EB0D49
:102C3000F4C3883081F420918F018091900190E05D
:102C4000820F911D029719F40E94222AF4C380E09A
:102C50000E945029E2C3833009F0B0C0809118016E
:102C6000813009F0E1CE80E00E94EF06609197018B
:102C700080919D011DDE80E70E94C80640E06091C2
:102C8000970180919D010E947B3760937F01709333
:102C90008001809381019093820180E00E943C0B2F
:102CA00060917F01709180018091810190918201FA
:102CB00002E026E442EF0E94F70C0E94330641E056
:102CC0006091970180919D010E947B3760937F0105
:102CD00070938001809381019093820126E442EFFA
:102CE0000E94F70C81E391E00E94B20CF4C282E3EF
:102CF0000E94430C82E291E00E94B20C90919701F5
:102D000030919801931307C080E00E940A0781E088
:102D10000E9401070CC020919D0180919E01281303
:102D200008C080E00E94FB0681E00E94100781E05D
:102D3000A3CF321304C081E08093060132C0981300
:102D400079CEC09306012DC0A092060180919D010D
:102D500090919801891303C021E0209306014091CE
:102D6000970130919E01431302C0C0930601209148
:102D70009901821303C082E08093060180919F0134
:102D8000481302C03092060132130EC08092060131
:102D9000981761F083E30E94430C82E291E00E9465
:102DA000B20C0E94DE0697C2981302C090920601F0
:102DB00080910601823208F03DCEECCF843009F0DC
:102DC00050C180917301882309F45DC08091510145
:102DD000882309F458C060914E01809150010E94EF
:102DE000B02440907F0150908001609081017090EC
:102DF00082011091910160917201809170010E9495
:102E0000B0248091420190914301A0914401B0917E
:102E10004501409164015091650160916601709196
:102E20006701843F21E09207A105B10538F4443FD2
:102E300031E053076105710508F010EF443F514040
:102E40006105710538F4843F9140A105B10510F08A
:102E5000B09291018091910118130EC080917F0171
:102E600090918001A0918101B0918201481659068C
:102E70006A067B0618F005C018171CF4D0931901D8
:102E800002C02092190180917301882361F0809122
:102E90005101882341F04F9906C09091190181E0BA
:102EA00089278093190166E080E00E944C0A80EC3B
:102EB0000E94F80B809119018C3051F480E991E067
:102EC0000E94B20C809173018823A9F080E711C0A1
:102ED000F0924001E0923F018FEC91E00E94400CA3
:102EE00088E891E00E94B20C80915101882319F08A
:102EF0008EE60E94430C7ED8182F8530A0F4A09156
:102F00003F01B0914001E82FF0E0E956FE4F1D96D9
:102F10009C918081981711F062E001C060E086E921
:102F200091E00E942A0C60E189EF0E94110E86E078
:102F30000E94220B8FE991E00E94B20CE0913F01C8
:102F4000F0914001608171818281938103E020E0F2
:102F50004EEF0E94F70C87E00E94220B89E40E944A
:102F6000430CE0913F01F0914001868197818031CF
:102F7000974270F085E60E94430CE0913F01F0918A
:102F8000400186819781805197429783868303C051
:102F900083E60E94430C0E943506E0913F01F091C8
:102FA000400122E041E46AEF868197810E94E00DB2
:102FB00086E00E94220B88E791E00E94B20CE0912B
:102FC0003F01F091400163E0848195810E94EB0D07
:102FD00081E080934101E0913F01F09140018085C3
:102FE0009185892B91F085E00E943C0B84E091E073
:102FF0000E94B20CE0913F01F091400122E041E4D7
:103000006AEF808591850E94E00DE0913F01F0918B
:10301000400182859385892B91F085E00E943C0BCD
:103020008EEF90E00E94B20CE0913F01F0914001E0
:1030300022E041E46AEF828593850E94E00D15301D
:1030400068F480E00E943C0B812F0E94EF0684E729
:1030500091E00E94B20C812F0E94BA0643E462E420
:1030600038C1853009F041C166E080E00E944C0A19
:103070008091190184FF09C080E50E94430CF09201
:103080004001E0923F0102E004C08EE40E94430C44
:1030900000E00E94330680911901182F1F70143030
:1030A00061F48AEA91E00E94B20C83EC0E94F80B72
:1030B0000023E1F18FED91E037C085FF05C084E486
:1030C0000E94430C0F5F03C085E40E94430C133041
:1030D000B1F484EA91E00E94B20C81EC0E94F80BFA
:1030E000013019F487E392E01FC0023019F483E441
:1030F00092E01AC00330D1F48BE092E015C08FEA61
:1031000091E00E94B20C82EC0E94F80B013019F49D
:1031100089EF91E009C0023019F481E092E004C027
:10312000033021F489EE91E00E94400C0E94FA0FD6
:103130008530A0F4A0913F01B0914001E82FF0E06C
:10314000E956FE4F1D969C918081981711F062E020
:1031500001C060E086E991E00E942A0C60E189EFFD
:103160000E94110E86E00E94220B86E00E94220B34
:103170008091190185FD1CC080E791E00E94B20C8E
:10318000E0913F01F091400162E0828593850E94C9
:10319000EB0DE0913F01F0914001668584850E942E
:1031A000B02486E00E94220B0E94CB0C85E06EC00A
:1031B0008F70E0913F01F0914001843039F06685D5
:1031C00084850E94B0240E94CB0C13C08481958119
:1031D000892B79F080E090E00E94B20CE0913F01F1
:1031E000F091400122E041E46AEF848195810E94E0
:1031F000E00D60E086E00E944C0A89E40E94430CE6
:1032000084E60E94430C0E943506E0913F01F09154
:10321000400122E041E46AEF868197810E94E00D3F
:103220008AE691E00E94B20CE0913F01F0914001EA
:1032300062E0828593850E94EB0DE0913F01F09161
:10324000400180859185803C9241F8F480E00E94A5
:103250003C0B89E40E94430C84E60E94430C0E94CC
:10326000350622E041E46BEF80E090E00E94E00D43
:103270008AE691E00E94B20CE0913F01F09140019A
:1032800062E0808591850E94EB0D80E00E94E30C56
:10329000143009F4BDC000E0809118010817A0F4B3
:1032A000011103C080E00E94220B80E00E943C0BD1
:1032B000802F0E94EF0684E791E00E94B20C802FDD
:1032C0000E94BA060F5FE8CF133009F0C5C043E48F
:1032D00067E485E4A0C080917A01882309F49DC049
:1032E000C7B917B880E00E943C0B20917A012223D5
:1032F00009F481C02130A1F4809161010E948B0604
:1033000020916101213039F420911801211103C06D
:103310000E94D82990C040E0692F0E9493287DC068
:10332000909161018091620134E0839FD00111246A
:10333000AC54BE4F44E0949FF0011124EC54FE4F76
:103340004D905D906D907C90408151816281738140
:10335000441555056605770510F4182F01C0192F7F
:10336000223021F4890F13E0181B1CC080916301E7
:1033700094E0899FD0011124AC54BE4F24E0129FE9
:10338000F0011124EC54FE4F4D905D906D907C90B7
:103390004081518162817381441555056605770529
:1033A00008F4182F712E769402E0011B111103C04E
:1033B0006624639402C082E0682E872D0E94970CD9
:1033C0008DE191E00E94B20C802F0E94970C8DE15C
:1033D00091E00E94B20C862D0E94970C80E00E9422
:1033E000220B81E0111180E00E94950682E087198E
:1033F0000E94950612C086E892E00E94B20C0E94DC
:103400005F0A83EB92E00E94B20C8EEA92E02ACB34
:103410004FE367E48FE30E945E0600910B01109179
:103420000C0127CB90911301933008F02ACB811126
:103430002CCB911121CB80913A01882351F00E942D
:10344000920A89E692E00E94A50C80E197E20E9430
:10345000660F0E94411019CB44E467E483E5DBCF9B
:103460000E94590A83E792E00E94B20C8BEC0E9402
:103470003F070E94411080E090E0CDB7DEB7E2E167
:103480000C94F73C0F931F93CF93DF9385E00E943A
:10349000760785E00E9472078C01EC01CC0FDD1FDE
:1034A000CC0FDD1FCA56DF4F10923801C43883E0BD
:1034B000D80750F484EB91E00E94B20C0E941C0BE0
:1034C00081E08093380126C083EC91E00E94B20C29
:1034D00062E0CE010E94EB0D0E9431060A3F86E0B9
:1034E000180790F40333164060F48CEB92E00E94CE
:1034F000B20C0E941C0B8DEC0E943F070E944110F1
:1035000009C083EC92E002C080EC91E00E94B20C12
:103510000E941C0BDF91CF911F910F910895CF93C3
:10352000DF93DC019C01261B370BE0E090E0B90142
:10353000690F711D672F7727920F260F371FBA016A
:103540006E0F711D672F7727E40FEB01CC0FDD1F86
:103550004C0F5D1F6B3E28F4A217B30740F7CA015A
:1035600002C080E090E0DF91CF910895A7E1B0E044
:10357000ECEBFAE10C94DB3C8E8B162F042FA89514
:10358000E62FF0E0ED59FD4F24912B87220F298B78
:10359000339634913A83E42FF0E0ED59FD4F449196
:1035A0004B833396F490E82FF0E0ED59FD4F849172
:1035B0008983880F8E87339694919F8B45B96B844E
:1035C000642A64B897B998B9862F0E9472079D87BC
:1035D0008C87EB85E4B9812F0E9472071C0114B817
:1035E0000E94270715B864B8812F0E9472076C8566
:1035F0007D850E94D4074C01FA81F7B918B82B8158
:103600003981232B2C8325B924B98E890E94720716
:103610000E94DA075C0115B80E942707498145B965
:103620008E890E9472070E94DA076C01898184B931
:103630008E890E9472070E94DA07782EE92EB60161
:10364000C5010E94D4078032E1E09E0730F4F0E229
:103650008F16F1E09F0608F48AC58C0C9D1C2C8502
:103660003D85820F931F8816990620F4DD86CC864F
:10367000272C3E2C2091510130917301822F90E034
:10368000830F911D02974CF0213009F070C5909185
:103690004E018091700198136AC5EB80EE0C398160
:1036A0003E293A878C859D858437910508F48BC126
:1036B000880F991F44962816390608F084C19F89FF
:1036C00097B998B98B858E2984B9812F0E946F078D
:1036D0006C01802F0E9476075C01E5B8812F0E9463
:1036E0006F079601295A3D4F18B82817390708F077
:1036F000AAC0EA81E7B9FA85F4B9F5B9802F0E942A
:103700006F0788349F4028F085E080931A0182E299
:1037100004C085E080931A0184E280931901D0925D
:103720004701C0924601B501C6010E94DF07909390
:103730004D0180934C019601A0E1B7E20E94313C1B
:10374000209114013091150140E050E00E94F33BBC
:10375000309349012093480189898E2984B915B88D
:103760003F8937B938B9802F0E9476076C01812FC5
:103770000E946F07B6010E94DF079C0190934B01E6
:1037800080934A01909119019F70943071F5409196
:1037900048015091490160914C0170914D01C9015E
:1037A000BEDE0097F1F0E4B84F898A81482B47B913
:1037B000812F0E946F076C0117B89C01A0E1B7E24E
:1037C0000E94313C20913B0130913C0140E050E0AF
:1037D0000E94F33BA901B60180914A0190914B01EF
:1037E0009EDE9093470180934601809119018F706E
:1037F000843009F4B4C418B89A81F92AF7B8E98179
:10380000E4B9FC81F5B98E890E9472076C010E94AF
:10381000DA077C01812F0E947607A0901D01B090ED
:103820001E01BC01C6010E94DF079501DC010E9458
:10383000313C970140E050E00E94F33B3093470158
:10384000209346018CC42A8127B93A8534B935B909
:103850008E890E946F076C01802F0E9476075C01A1
:10386000498145B98E890E946F07895A9D4F8C15F1
:103870009D0508F07CC48F8988B987B9802F0E9484
:103880006F07813D934028F485E080931A0182E31D
:1038900004C085E080931A0184E380931901B60186
:1038A000C5010E94DF0790936F0180936E01C601EE
:1038B0000E94DA079C01A0E1B7E20E94313C20910E
:1038C0001D0130911E0140E050E00E94F33B309317
:1038D0006B0120936A0118B8FA81F7B98E858E2999
:1038E00084B985B98E890E9476076C01802F0E9469
:1038F0006F07B6010E94DF079C0190936D018093D2
:103900006C01909119019F70943091F540916A017A
:1039100050916B0160916E0170916F01C901FFDDE3
:10392000009711F1E5B8E4B82F8928B92A80222A36
:1039300027B88E890E946F070E94DA076C0117B8BA
:103940009C01A0E1B7E20E94313C2091340130910A
:10395000350140E050E00E94F33BA901B60180919F
:103960006C0190916D01DBDD90936901809368019A
:10397000809119018F70843009F4CFC13F893F29AC
:1039800038B937B915B84C8144B98E890E9472078D
:103990005C01812F0E9476077C01C0901401D090B9
:1039A0001501BC01C5010E94DF079601DC010E94E0
:1039B000313C970140E050E00E94F33B30936901B5
:1039C00020936801AAC118B88A8187B9998195B9ED
:1039D000EA85E4B98E890E947207988B8F870E94CE
:1039E000DA079F838E83802F0E94760799878887C6
:1039F0002101F4E64F0E511C2E813F81B101421688
:103A00005306D8F4C9010E94DF076C0120911D0103
:103A100030911E0140E050E060E871EA83E09CE1F3
:103A20000E94F33BD6010E94463CE885F9854F0190
:103A3000A12CB12CA501940123C08E819F810E94ED
:103A4000DF076C01FC81F4B98E890E947207988BA4
:103A50008F870E94DA079F838E83802F0E947607CC
:103A600099878887BC01C6010E94DF079C01A4E6F4
:103A7000B0E00E94313CE885F9859F0140E050E0CC
:103A80000E94F33B49015A0114B815B8FF89F8B9EF
:103A9000F7B981E00E943F0764B8812F0E94720746
:103AA0007B847E288F359D4008F43DC174B8812FFA
:103AB0000E946F076C01802F0E9476079B8B8A8B78
:103AC0008E890E9476079D8B8C8B8A899B89813D8C
:103AD000974008F4B1C084E080931A018DE0809390
:103AE000190176012C143D0410F4E218F3084090FB
:103AF000140150901501612C712C60E871EA83E08B
:103B00009CE1A30192010E94F33BD7010E94463C35
:103B1000EA89FB899F0140E050E00E94F33B8091DD
:103B20007301882369F08091640190916501A091EF
:103B30006601B091670182179307A407B50708F5DE
:103B400020936401309365014093660150936701AF
:103B50009601A0E1B7E20E94313CA30192010E94CC
:103B6000F33B30936B0120936A016A897B898C89CE
:103B70009D890E94DF07909369018093680181E02D
:103B800001C080E04091640150916501609166013F
:103B900070916701481559056A057B0538F58092D3
:103BA000640190926501A0926601B09267016885F8
:103BB00079858F8598890E94DF07909369018093AA
:103BC00068012E813F81A0E1B7E20E94313C209143
:103BD0001D0130911E0140E050E00E94F33B205F48
:103BE000384D30936B0120936A0103C0882309F498
:103BF00099C3C0901401D0901501E12CF12C9101D2
:103C0000A0E1B7E20E94313CA70196010E94F33B7C
:103C100030936D0120936C012C853D85A0E1B7E2C6
:103C20000E94313CA70196010E94F33B30936F0143
:103C300020936E0181E076C3F1E62F16310408F07F
:103C400072C021EDC21627E0D20608F46CC085E0F0
:103C500080931A0182E180931901C60186509F4F1B
:103C6000EC89FD898E179F0720F483E18093190169
:103C700016C0E0901401F0901501B6018C899D8961
:103C80000E94DF079701DC010E94313C960140E071
:103C900050E00E94F33B3093690120936801FA8160
:103CA000F7702F2E802F806480937C002BE0298377
:103CB000CC24C394D12CEE24EA94A3E0FA2EA89548
:103CC00061E08B8160D574B886B18221E9F33B85D0
:103CD00034B980917A00806480937A0080917A0070
:103CE00086FDFCCF8091780090917900F701E81B68
:103CF000F90BCE0EDF1EF981F150F983F111DFCF00
:103D0000C601880F991F880F991F69E070E00E9413
:103D1000CC3B70936F0160936E01809173018F5F54
:103D20008093730187CF74B8E5B8812F0E94720722
:103D30005C01802F0E9476079F838E830E94DA07A2
:103D40007C014A145B04A8F4B101C5010E94DF079D
:103D50006C01209114013091150140E050E060E8C1
:103D600071EA83E09CE10E94F33BD6010E94463C4D
:103D70001DC064B82B8125B9812F0E9472075C0198
:103D8000802F0E9476079F838E830E94DA077C0132
:103D9000C5012A143B0410F482199309B7010E944B
:103DA000DF079C01A4E6B0E00E94313C970140E0AF
:103DB00050E00E94F33B29013A013A8137B918B823
:103DC0004C8144B945B98E890E9472076C01802FDD
:103DD0000E9476074C01812F0E9476077C0180E3C8
:103DE000C81681E1D80608F0C0C1998195B98E89BD
:103DF0000E94720799878887E981E4B98E890E94B9
:103E00007207988B8F8715B881E00E943F07F98170
:103E1000F5B98E890E9472072F8538892034364083
:103E200008F05FC08133914108F45BC0C6018A5637
:103E30009F4F288539852817390708F052C086E03A
:103E400080931A01809151018F5F80935101B701D6
:103E5000C4010E94DF079093470180934601B70198
:103E6000C6010E94DF0790934D0180934C0114B866
:103E700015B83A8138B981E00E943F07498144B9B9
:103E80008E890E947207853F910508F05AC28C8185
:103E900084B9802F0E947207813D934008F451C27B
:103EA0008E890E9476078D3D924008F44AC229818E
:103EB00024B98E890E9472078D3D924008F441C258
:103EC000498145B981E00E943F0715B88E890E945B
:103ED0007207853F910508F034C287E080931A018C
:103EE00030C28A8187B99B8194B995B981E00E94DB
:103EF0003F07EA85E4B9E5B98E890E9472076C0133
:103F00000E94DA077C01802F0E9476079D838C83B4
:103F10000E94DA0799878887812F0E9476074C01D3
:103F2000288539852E3F394008F4B0C084E080935D
:103F30001A018CE080931901B101C7010E94DF07CB
:103F40006C0120911D0130911E0140E050E060E8BD
:103F500071EA83E09CE10E94F33BD6010E94463C5B
:103F6000E885F9859F0140E050E00E94F33B809195
:103F70005101882369F08091420190914301A09101
:103F80004401B091450182179307A407B50720F5B6
:103F900020934201309343014093440150934501E3
:103FA000B4018C819D810E94DF079093470180932B
:103FB00046019701A0E1B7E20E94313C20911D012A
:103FC00030911E0140E050E00E94F33B30934901E4
:103FD0002093480181E001C080E04091420150916E
:103FE00043016091440170914501441555056605F2
:103FF000770528F5409242015092430160924401B6
:1040000070924501B5018E819F810E94DF079093D8
:104010004701809346019501A0E1B7E20E94313C3F
:10402000209114013091150140E050E00E94F33BD3
:10403000205F384D309349012093480103C0882305
:1040400009F480C19101A0E1B7E20E94313C2091C6
:1040500014013091150140E050E00E94F33B309391
:104060004B0120934A012C853D85A0E1B7E20E94D7
:10407000313C20911D0130911E0140E050E00E9432
:10408000F33B30934D0120934C015BC1F1E62F16B9
:10409000310408F06AC029E4E2162DE0F20608F4C3
:1040A00064C085E080931A0182E080931901C40105
:1040B00086509F4F8C159D0520F483E08093190155
:1040C00015C0A0901D01B0901E01B401C6010E9450
:1040D000DF079501DC010E94313C970140E050E090
:1040E0000E94F33B30934701209346013F8937708C
:1040F000D32E802F806480937C004BE04A83EE2493
:10410000E394F12CA89560E08B813DD38A8584B936
:1041100085B986B18D21E9F7998194B980917A00AA
:10412000806480937A0080917A0086FDFCCF809134
:10413000780090917900E80EF91EEA81E150EA8357
:10414000E111E0CFC701880F991F880F991F69E01F
:1041500070E00E94CC3B70934D0160934C018091C4
:1041600051018F5F80935101ECC017B818B814B893
:1041700015B817B8F7EC2F16F1E03F0608F4C4C0E5
:1041800018B82E8524B908ECEA803F89E32AE7B8FD
:1041900081E00E943F074A8147B98E890E947607D5
:1041A000429710F0015099F78E8584B985B961E086
:1041B0008B81E9D28E890E9472074C01998994B94A
:1041C00015B8EF89E7B9E8B960E08B81DCD2812FBF
:1041D0000E9472070E94DA076C01FB85F4B9812FF7
:1041E0000E9476077C018E890E947207B7010E94A7
:1041F000DF077C01812F0E9476075C018E890E9477
:104200007207B5010E94DF0797012C5E3F4F281708
:10421000390708F47CC018B82A8127B9398134B924
:1042200035B961E08B81AFD2812F0E9476075C01A6
:104230008E890E947207B5010E94DF075C01E816B3
:10424000F90650F44E8544B945B98E890E9472072B
:104250009C01640175010FC0898984B915B89F89D3
:1042600097B998B960E08B818ED2812F0E94720736
:104270000E94DA079C01E8EEEE16E3E0FE0630F459
:10428000C70164E670E00E94CC3B06C0B70154E071
:10429000769567955A95E1F7C7018759910989384D
:1042A000914190F52E153F0578F5C60143E09695AE
:1042B00087954A95E1F7893C910510F088EC90E0EC
:1042C0008C0D9D1D8E159F05F8F46C157D05E0F491
:1042D00080911A01833018F483E080931A012091B1
:1042E0001801822F90E0FC01E956FE4F3E89308391
:1042F0001683880F991FFC01ED55FE4FF182E08275
:104300002F5F2093180103C0612F8E892AD017B820
:1043100018B814B815B88EE20E94430C6796E2E113
:104320000C94F73C909173019F5F909373018823E5
:1043300071F300937001109371014E8940937201E3
:10434000E6CF81E0909151019F5F909351018823C6
:10435000F1F200934E018E8980934F01109350012A
:10436000D6CFA0E0B0E0E7EBF1E20C94DD3CA895FD
:10437000462F50E0FA01ED59FD4F949033969491F9
:10438000A82FB0E0FD01ED59FD4FE4903396F49075
:10439000709173012091510130E0270F311D232BC3
:1043A00009F0ECC1A8952091200130912101220F44
:1043B000331F220F331F309333012093320120919A
:1043C000780130917901220F331F220F331F309370
:1043D0003101209330012EEB20932E01C091180162
:1043E000E7E9F1E070E04A0F5B1F7C1759F021917B
:1043F000A58130E02A0F311D2417350709F451C07B
:104400007F5FF3CFD62FC82F18B897B9E4B8E5B8B7
:10441000B8E1BB2EC12CD12C8D2F0E947207782EB3
:10442000692E8C2F0E9476078C018C199D0997FFAD
:1044300003C0919581959109039734F0A895BA949A
:104440006801B110E9CF2DC0EE0C15B8E4B88C2F7F
:104450000E9472078135910520F5E5B88C2F0E94E6
:1044600072076C01F7B8F8B815B894B8A8E18A2EAD
:10447000A12CB12C8C2F0E947207582E492E8D2F03
:104480000E9476077C018A199B0997FF03C09195CA
:10449000819591090397CCF0A8958A9457018110D2
:1044A000E9CF809120019091210190933301809375
:1044B000320180917801909179019093310180933C
:1044C000300189E180932E0159C1990C94B88D2F48
:1044D0000E9472075C01003C84E4180730F425E870
:1044E000C21621E0D206E8F605C080EBC8168DE4BE
:1044F000D806B8F624EAE21622E0F20608F06CC00C
:1045000088E9A816B10468F2C6010E94DA07AC0176
:104510009601A8E9B7EB0E94313C9A0140E050E0D7
:104520000E94F33B29013A01C5010E94DA079C0170
:10453000A8E9B7EB0E94313C850120E030E0A901F9
:1045400098010E94F33B88E7C8168FE0D80680F4F4
:10455000D301C201F2E0880F991FAA1FBB1FFA9571
:10456000D1F7BC01CD01620F731F841F951F14C0CA
:1045700088E7A8168FE0B806B0F4DA01C901E2E0D6
:10458000880F991FAA1FBB1FEA95D1F7BC01CD0167
:10459000640D751D861D971D25E030E040E050E05C
:1045A0000E94F33B0CC0D301C201820F931FA41FD2
:1045B000B51F9C01AD015695479537952795A4E603
:1045C000B0E00E94463C2B013C012CEA420E2DE05B
:1045D000521E611C711C79C0672D762D06171707B6
:1045E00008F4B801C52CD42CCE14DF0408F46701FC
:1045F0000617170708F48B01A0901D01B0901E014B
:10460000C8010E94DF079501DC010E94313C2B01AB
:104610003C01C8010E94DA079C0140E050E0C30160
:10462000B2010E94F33B29013A01CE14DF0408F4E1
:104630007601A0901401B0901501B701C6010E9447
:10464000DF079501DC010E94313C4701A12CB12C10
:10465000A50194010E94F33B08378FE0180780F40E
:10466000D301C20162E0880F991FAA1FBB1F6A9580
:10467000D1F7BC01CD01620F731F841F951F14C0B9
:1046800088E7E8168FE0F806C0F4DA01C90132E0E5
:10469000880F991FAA1FBB1F3A95D1F7BC01CD0106
:1046A000640D751D861D971D25E030E040E050E04B
:1046B0000E94F33B29013A0108C0420E531E641EBA
:1046C000751E769467945794479410911A0114308C
:1046D00008F0E7CEC1500C2F0D0F202F30E0E9017C
:1046E000C25ADE4F8881220F331F220F331FF90178
:1046F000EC54FE4F8823D9F1C080D180E280F38052
:10470000A30192012C193D094E095F0957FF07C00B
:1047100050954095309521953F4F4F4F5F4FAAE000
:10472000B0E00E94463C24E6C20ED11CE11CF11C04
:10473000A7019601240D351D461D571D0E94F33B10
:10474000232B242B252B09F0ACCE133019F081E05C
:1047500080931A0182E0888380917A01E82FF0E04B
:10476000EF59FE4F00838F5F80937A019ACE40828B
:1047700051826282738281E0888393CECDB7DEB7A7
:10478000E0E10C94F93CCF93C82FC09595B160FF40
:1047900002C0982B01C09C2395B994B1892B84B990
:1047A0000E943E0784B18C2384B985B1C823C5B962
:1047B000CF910895AF92BF92DF92EF92FF920F9345
:1047C0001F93CF93DF931AE08FE3D82E09E017B839
:1047D00018B815B8D4B880E00E9472077C0181E057
:1047E0000E947607EC0182E00E9476079C0180918E
:1047F0001A01893079F417B814B8F0925701E09291
:104800005601D0935901C093580130935B01209316
:104810005A015CC084E0E816F10440F4C430D105CC
:1048200068F42430310538F391E00CC091E088EE53
:10483000E81683E0F80618F090E001C091E0C83E69
:10484000D34008F49260283E334008F4946097B94E
:10485000C0E0D0E0A89580E00E946B075C0181E099
:104860000E9476077C0182E00E94760724E1A2166E
:1048700025E0B20608F4389A24E1E21625E0F206B3
:1048800008F4399A843125E0920708F43A9A26E030
:10489000A216B10430F426E0E216F10410F40697F3
:1048A00038F02196C43F81E0D807A1F600931A01A1
:1048B000E12CF12CEC16FD0631F00E942D072FEFB4
:1048C000E21AF20AF7CF115009F081CFDF91CF91B0
:1048D0001F910F91FF90EF90DF90BF90AF900895E0
:1048E000CF92DF92EF92FF92CF9320917F01309190
:1048F00080014091810150918201C09191018AE033
:10490000C82ED12CE12CF12C8C2FCF5F213A96E8C8
:10491000390791E04907510538F0CA01B901A701EB
:1049200096010E94F33BF0CF80939101A091320158
:10493000B09133010E94463C28E833E140E050E06A
:104940000E94F33B20937F013093800140938101CB
:1049500050938201CF91FF90EF90DF90CF90089518
:104960008F929F92AF92BF92CF92DF92EF92FF927F
:104970001F93CF93DF93982F990F980F2FEF260F48
:10498000920F90935301E82FF0E0ED59FD4FD49131
:10499000262F30E0F901ED59FD4FF490F901EA5965
:1049A000FD4FD49090911A01913009F49DC220914D
:1049B0001801E7E9F1E0DF0190E0921791F0169617
:1049C0003C911697631309C03C91831306C044853C
:1049D00055854C3D554008F487C29F5F119632962D
:1049E000ECCF162FC82F10928C0110928B0181EF03
:1049F0008093910110927F011092800110928101A9
:104A000010928201D7DE18B8D7B8F4B8F5B88C2F59
:104A10000E9476075C01812F0E947607A81AB90AC6
:104A200014B8109255011092540180915401909144
:104A30005501843F914008F0A9C0D5B9D4B90E946E
:104A4000270714B815B80E942E07A8958C2F0E942E
:104A500076077C01EA18FB0880915401909155017A
:104A60008E37910528F08BE4E816F1040CF48EC023
:104A700080915401909155012DE2E21621E0F20659
:104A800034F401969093550180935401CECF892B35
:104A900009F0A1C185E1E81685E0F8060CF49BC198
:104AA00089DE15B887E087B918B8FD2EFF0CF4B879
:104AB00080E480937B0084E580BF8C2F80648093AA
:104AC0007C0086E180937A000E94310710925501A4
:104AD0001092540110928000109285001092840070
:104AE00087E286BB81E280936F0081E080937C0146
:104AF000F5B890911A0180938100953009F04BC070
:104B000081E090E00C2E01C0880F0A94EAF78095AE
:104B1000877087B9F89483B7817F83BF80917C01C8
:104B2000882389F083B7816083BF7894889583B7A1
:104B30008E7F83BFF894A895809154019091550180
:104B40008034964059F7789410928100E090860066
:104B5000F090870010926F0086E980937A0014B875
:104B600015B88C2F0E9476072091360130913701BD
:104B7000821B930B0C9690939401809393018091E8
:104B80005401909155018032934038F017B818B80D
:104B900014B815B8A9C1D7B8BDCF80915401909170
:104BA000550190938A0180938901F0928801E092E7
:104BB000870184EF80939101809154019091550178
:104BC00082349105C8F060918701709188018091CD
:104BD000890190918A0124E630E040E050E00E9493
:104BE000F33B2093870130938801409389015093D0
:104BF0008A0186EF80939101A0917D01B0917E01A1
:104C000020918701309188014091890150918A015A
:104C10000E94463C20E233E040E050E00E94F33B3B
:104C200020938701309388014093890150938A0132
:104C300020937F0130938001409381015093820142
:104C40004FDE80919101843F09F070C0C0907F01D8
:104C5000D0908001E0908101F090820180EAC81636
:104C60008FE0D806E104F104C0F4A70196012C54AA
:104C70003F4F4F4F5F4F60EA7FE080E090E00E943F
:104C8000F33BC20ED31EE41EF51EC0927F01D092EC
:104C90008001E0928101F0928201C0907F01D0906A
:104CA0008001E0908101F0908201C114D10421E0E3
:104CB000E206F10428F4D092C501C092C40106C0F6
:104CC00081E090E09093C5018093C40180915301ED
:104CD00090E0805B9C4F0E946E3D90E0A0E0B0E0D1
:104CE0008C159D05AE05BF0568F4C81AD90AEA0AF5
:104CF000FB0AC0927F01D0928001E0928101F09284
:104D0000820114C034E1C30ED11CE11CF11CC81691
:104D1000D906EA06FB0610F40E94461410927F01A1
:104D2000109280011092810110928201D4B9809179
:104D30007F0190918001A0918101B09182014997FA
:104D4000A105B10508F422CFC12CD12C8091180106
:104D5000882329F080911A01853009F017CF88E067
:104D600080931A0180919101909192019817C4F05B
:104D700089130CCF80907F0190908001A0908101D9
:104D8000B09082014091830150918401609185012E
:104D900070918601481559056A057B0508F0F6CE25
:104DA00040917F0150918001609181017091820159
:104DB0004093830150938401609385017093860131
:104DC00080939201D0928E01C0928D0110938F0139
:104DD000C0939001DBCEC701C12CD12C209154018E
:104DE000309155012C153D0560F00E9428078C2F4D
:104DF0000E9476078A199B09A8952FEFC21AD20A3A
:104E0000EDCF5701A81AB90A1A141B049CF439EC07
:104E1000A316B1040CF0BACE28EE33E0D5010E94FF
:104E2000403C97010F2C000C440B550B0E94F33BA8
:104E3000690102C0C12CD12C80915401909155017F
:104E40000196A0E0B0E08093870190938801A09341
:104E50008901B0938A01C7018A0D9B1D0E943B08FE
:104E600020918701309188014091890150918A01F8
:104E7000DC010E94463C6093870170938801809317
:104E8000890190938A0160937F01709380018093E0
:104E900081019093820187EF8093910121DD8090C1
:104EA0007F0190908001A0908101B090820183E306
:104EB00093E00E946E3DA8EEB3E0A81BB10987FD08
:104EC000B395A50194010E94503C24E630E040E0F7
:104ED00050E00E94F33B20937F0130938001409388
:104EE00081015093820132CFDF91CF911F91FF90CA
:104EF000EF90DF90CF90BF90AF909F908F900895EC
:104F00001F920F920FB60F9211248F939F93B59912
:104F100004C080917C01811109C0B59B10C08091B3
:104F20008600909187008A3F910548F48091540152
:104F300090915501019690935501809354019F9152
:104F40008F910F900FBE0F901F9018951F920F9288
:104F50000FB60F9211248F939F9310927C01B09BF8
:104F600010C080918600909187008A3F910548F497
:104F70008091540190915501019690935501809331
:104F800054019F918F910F900FBE0F901F90189515
:104F9000A0E0B0E0EEECF7E20C94E13C88E893E1AD
:104FA00090932101809320019093330180933201EB
:104FB0008EEB80932E0118B880E187B90E943607E6
:104FC00017B884E00E947207AC018B5C9840833F65
:104FD0009140A0F481E080933D0120913201309115
:104FE0003301AFEBB9E00E94313C9A0140E050E060
:104FF0000E94F33B309321012093200180912001F6
:105000009091210190933301809332018EE00E94B0
:1050100076078EE00E9472079093370180933601E5
:105020000E94E807C7DB18B8C1E0C7B985E185B9B8
:10503000C4B980E00E9472078C0182E0D82ED7B8F4
:10504000D4E0D4B981E00E947207080F191FD7B9C4
:1050500090E1C92EC4B882E00E947207080F191FA0
:1050600015B8C8B9C7B9C4B980E00E9472070E94D8
:10507000DA077C01D8B8D7B8D4B981E00E947207AA
:105080000E94DA07E80EF91ED8B9D7B9C4B882E091
:105090000E9472070E94DA07E701C80FD91F17B8EC
:1050A00018B814B820913201309133016901CC0C49
:1050B000DD1CC20ED31EC01AD10ACC1ADD0AE12CA7
:1050C000F12C9801A0E9BAE10E94313CA7019601B8
:1050D0000E94F33B49015A0130933C0120933B016C
:1050E0009E01A0E9BAE10E94313CA70196010E940D
:1050F000F33B30933501209334012057354E3093E4
:105100001E0120931D0180E7881A85EE980A90926F
:1051100015018092140189E180932E01CDB7DEB78D
:10512000ECE00C94FD3CCF92DF92EF92FF920F9354
:10513000CF93DF93F82EC62FD42F0E94970C8DE1CA
:1051400091E00E94B20CFBD16C2F8F2D0E94EB39A5
:10515000C090C801D090C901E090CA01F090CB0185
:105160008091220187FD05C0C114D104E104F1043E
:1051700021F089E191E00E94B20C8C2F0E94970CE3
:10518000C114D104E104F10431F00E943106809190
:1051900061010E949506DD2351F080913E0181312D
:1051A00030F490E08C5A9C4F0E94B20C02C00E94D6
:1051B0001C0B80E00E943C0BCD28CE28CF28D9F0D4
:1051C0006091C8017091C9018091CA019091CB0191
:1051D00003E028E447EF0E94F70C8CE291E00E9484
:1051E000B20C89E693E00E94763D23E046E464EF4A
:1051F0000E94E00D1AC0809161010E949506809185
:1052000022018E3F94F48AE491E00E94B20C6091F6
:10521000AF017091B0018091B1019091B20103E0B2
:1052200028E4409122010E94F70C8091C0019091E6
:10523000C101A091C201B091C301892B8A2B8B2B94
:10524000F1F080E00E943C0B6091C0017091C101BF
:105250008091C2019091C30104E028E440E00E94E3
:10526000F70C87E291E00E94B20C23E040E26FEF7E
:105270008091C6019091C7010E94E00D07C080E0B7
:105280000E94220B80914101811102C00E941C0BDF
:10529000DF91CF910F91FF90EF90DF90CF90089525
:1052A000EF92FF920F931F93CF93DF93182F0E94DB
:1052B000590A80918F010E94970C86E691E00E9426
:1052C000B20C6ED360918F01809190010E949E0874
:1052D000EC0190938C0180938B01E0908D01F09014
:1052E0008E01CA3F8FEFD80720F48EE191E00E9433
:1052F000B20C809190010E94970C112359F090916B
:105300003E0181E1891B0E94430A89E690E00E94E8
:10531000B20C02C00E941C0B0E945F0A60918301C4
:1053200070918401809185019091860104E026E4CA
:10533000409192010E94F70CCA3FDF4F68F485E567
:1053400091E00E94B20C22E04DE16EEF80918B0162
:1053500090918C010E94E00D0E941C0B0E94660A35
:10536000E114F10469F08EE491E00E94B20C22E0B5
:1053700045E26FEF80918D0190918E010E94E00DCA
:105380000E941C0BCDB7DEB7E6E00C94033D8F7096
:1053900021F40E946D0A0C94421A08958F3021F472
:1053A00090913801913011F08F5F089580E0089559
:1053B000CF9384E790E00E94A5326AE080E00E94EB
:1053C0004C0A8EE593E00E94B20CC0E00E941E10D1
:1053D00060E082E00E94B12162E080E00E94B121A1
:1053E0000E94590A80917A01882329F041E062E005
:1053F00080E099DE12C084E790E00E94B20C8EE556
:1054000093E00E94B20C0E945F0A8FE30E94430C5B
:1054100080E00E94220B0E941C0B8C2FB8DF88EECC
:1054200093E00E94660F811109C0809113018430BE
:1054300028F48C2FB3DFC82F8A3F40F20E94920AD3
:10544000CF9108950F931F93CF93DF93C0E0D8E0DF
:1054500012EF01E10E941E1060E082E081DAD09339
:105460001A0180919101843FE1F480917F01909134
:105470008001A0918101B091820184369105A1053E
:10548000B10578F440E060E082E00E947B376093F1
:105490007F0170938001809381019093820110932A
:1054A000910180919101823FACF0809392018091B3
:1054B0007F0190918001A0918101B0918201809340
:1054C000830190938401A0938501B093860181E0CC
:1054D000E7DE1CC00E94590A8DE690E00E94B20CE3
:1054E00080913E01902F981B892F0E94430A89E6E4
:1054F00090E00E94B20C0E945F0A8FE30E94430C6E
:105500000E941C0B0E94660A0E941C0B8C2F3FDF1E
:1055100088EE93E00E94660F81110AC0809113010A
:10552000843030F48C2F3ADFC82F8A3F08F492CFB2
:105530000E94920ADF91CF911F910F910895A4E1EB
:10554000B0E0E5EAFAE20C94DB3C82E080932201D1
:1055500080911A01813009F01FC280917A01813057
:1055600009F01AC20091610124E0029FF0011124A8
:10557000EC54FE4F80819181A281B381893032E564
:105580009307A105B10508F007C24C0110E0802F78
:10559000123028F40E948B06582E492E03C00E9418
:1055A0008B062C01E42DF0E0EA59FD4F2490852D67
:1055B00090E0FC01ED59FD4FE49115B818B820EFCB
:1055C00082169104B0F410FD14C0A0901401B090A4
:1055D000150130E9A31A3AE1B30A21E030E0052CC5
:1055E00002C0220F331F0A94E2F7C901822987B94A
:1055F00006C0E4B927B8A0901401B0901501F4E1F9
:105600003F2E852D0E946F073C01842D0E94760756
:1056100034E06316710410F4049718F03A943110D2
:10562000F0CF80E480937B0094E590BF852D80646B
:1056300080937C0026E120937A00E12CF12C1092DB
:105640008000109285001092840037E236BB0E94E1
:105650003107812F8170382E10FD05C081E88093BD
:10566000810028B808C028B80E943A0790E296BB8B
:1056700081E88093810086B385FF12C018B810922C
:10568000810020E226BB20918600309187006901CD
:1056900040918400509185002417350770F014C0A4
:1056A00080FFE9CF31E036BBA89597012F5F3F4FD0
:1056B000790120353105F9F6E1CF80FF05C081E0A1
:1056C00086BB9FEFE91AF90A86E980937A00E4E144
:1056D0002E2E852D0E946F073C01842D0E94760797
:1056E00024E06216710410F4049718F02A94211033
:1056F000F0CF40903B0150903C01480C591C4A0CA3
:105700005B1C209116013091170180E9A8168AE1EF
:10571000B806B0F491EEC916D104E104F10438F4EE
:10572000C60165E070E00E94CC3B645101C069E1B4
:1057300028523109261B310967FD339586E009C0DF
:10574000C20160EB76E30E94CC3B87E0860F285DC8
:105750003F4F90E0A0E0B0E08C159D05AE05BF0581
:1057600028F4C81AD90AEA0AFB0A03C0C12CD12CB2
:105770007601332029F082E2C80ED11CE11CF11C15
:1057800090E5E916F10418F0C12CD12C76018BE0DC
:10579000C816D104E104F10428F091E0C91AD10837
:1057A000E108F1084091320150913301612C712CD4
:1057B000A8EEB3E00E94313C698B7A8B8B8B9C8B7B
:1057C0009501DA010E94313CA30192010E94F33B52
:1057D0004427552769897A898B899C890E94F33BE4
:1057E000C9010E947A08FC01A3019201C701B60118
:1057F0000E94B13B2B013C01CF01A0E0B0E073E07F
:10580000880F991FAA1FBB1F7A95D1F7BC01CD0144
:105810006B5F7F4F8F4F9F4F2AE030E040E050E0BA
:105820000E94F33BC301B2010E94F33BE12FF0E081
:10583000A1E0B0E0AC0FBD1F84E0189FA00DB11D2A
:1058400011242D933D934D935C931397311016C003
:105850009CE0C916D104E104F10480F03196EE0F0A
:10586000FF1FEE0FFF1F81E090E08C0F9D1FE80FE0
:10587000F91F20833183428353831F5FA8951F5FE5
:10588000143008F484CE18B884E00E943F0791E0F9
:105890000D811E812F81388549815A816B817C81E0
:1058A000401751076207730708F090E00D851E85C9
:1058B0002F85388949855A856B857C854017510726
:1058C0006207730710F483E001C082E0E92FF0E083
:1058D000EE0FFF1FEE0FFF1F21E030E02C0F3D1FEA
:1058E000E20FF31FD90134E0839FA00DB11D1124F5
:1058F0000D911D912D913C91408151816281738167
:10590000041715072607370708F0892FE1E0F0E0B4
:10591000EC0FFD1F94E0899FE00DF11D11244081E3
:105920005181628173814093AF015093B0016093C4
:10593000B1017093B20180FD08C020EF821691047E
:1059400020F48BEF8093220117C08CEF809322010B
:10595000CB01BA016B5F7F4F8F4F9F4F2AE030E042
:1059600040E050E00E94F33B2093AF013093B00140
:105970004093B1015093B2018091AF019091B00179
:10598000A091B101B091B201892B8A2B8B2B11F41C
:105990001092220117B814B86496E2E10C94F73C17
:1059A000A0E0B0E0E6EDFCE20C94E13C80918D01DA
:1059B00090918E01892B09F09BC0E0918F01F0E05E
:1059C000EA59FD4FD491E0919001F0E0ED59FD4F7F
:1059D000C4910E94DA2318B815B8D7B9C4B9809118
:1059E00090010E9476078C01D09192018CE08D0F7E
:1059F000843008F07DC08091830190918401A09152
:105A00008501B0918601D15F2AE0822E912CA12CD4
:105A1000B12CBC01CD016B5F7F4F8F4F9F4FA50114
:105A200094010E94F33B69017A01DA01C901DF5F49
:105A3000D73079F729E8C21623E1D206E104F10450
:105A400008F056C0059708F453C0C5B9C4B9C0E002
:105A5000D0E0CC15DD0520F40E9438072296F9CF5E
:105A600014B815B8A89585E080932E018091900117
:105A70000E9476070817190720F4EC01C01BD10B10
:105A800002C0C0E0D0E0A12CB12CAC14BD0430F4B5
:105A90000E9438078FEFA81AB80AF7CF80919001BB
:105AA0000E94760729E120932E01A895081719076F
:105AB00018F4801B910B02C080E090E08C179D07CA
:105AC00088F49E01281B390B69F0A4EFB1E00E9415
:105AD000313C9E0140E050E00E94F33B30938E0148
