:100000000C94720B0C948F0B0C948F0B0C948F0B25
:100010000C948F0B0C948F0B0C948F0B0C949C16E0
:100020000C948F0B0C948F0B0C948F0B0C940E373D
:100030000C948F0B0C948F0B0C948F0B0C948F0BD8
:100040000C94F7360C948F0B0C948F0B0C948F0B35
:100050000C948F0B0C948F0B0C948F0B0C948F0BB8
:100060000C948F0B0C948F0B0C16CF15D215D51545
:10007000D715DB15DE15F81512161216FB15FE1531
:100080001216121601161216121612161216121641
:10009000041612161216121608160C16CF15D215C3
:1000A000D515D715DB15DE15F8152F162F16FB15F0
:1000B000FE152F162F1601162F162F162F162F1678
:1000C0002F1604162F162F162F160816B728BB2822
:1000D000C228C828C528C528CB28050A0605060A4F
:1000E000050A0609060A050A0609060A050A060996
:1000F000060A050A0605060A050A06050A06090A89
:1001000006090A06000010000000100E0000100191
:100110000000900000009000000090000018900087
:1001200000189000001808010018040E00180200C2
:10013000001801000098000000580000003800007E
:10014000FE1F000000380000005800001E98040048
:100150002218070022180700229807001E18880F8F
:100160002218900022189000220090001E00900794
:100170000000900000009000000090000000900F30
:1001800000000000000010000000900F0000900030
:100190000000900000009000000090070018900000
:1001A00000189000001889000018870F0018070039
:1001B00000180F00009800000058000000380000F0
:1001C000FE1F000000380000005800001E980000CC
:1001D0002218010022180200221804001E18080E1E
:1001E0002218100122189000220090001E0090009A
:1001F0000000900000009000000010010000100EB0
:1002000000000000000010000000900300009004B7
:10021000000090080000900800009008003090084E
:100220000030900800F69F0400368003003600007E
:100230001C060000220600000236020002360300FF
:1002400002F61F003A361300223612002206100072
:100250001C0610000036100000361000FEF71F07C5
:10026000003090080030900000009000000010075F
:10027000000010080000100800009008000010079F
:1002800000000000000010000000100700009008AF
:1002900000009000000090000000100700301008DF
:1002A00000301008FEF79F080036100700361000D7
:1002B0001C06100022061000023611000236130040
:1002C00002F61F003A360300223601002206000023
:1002D0001C060000003600000036000000F69F03F8
:1002E0000030900400309008000090080000900852
:1002F00000009008000090080000900400009003A7
:1003000000000000000010000000900300009004B6
:10031000000090080000900800009008003090084D
:100320000030900800F69F0400368003003600007D
:100330001C3600002236000002360200023603009E
:1003400002F61F003A361300223612002236100041
:100350001C3610000036100000361000FEF71F0794
:10036000003090080030900000009000000010075E
:10037000000010080000100800009008000010079E
:1003800000000000000010000000100700009008AE
:1003900000009000000090000000100700301008DE
:1003A00000301008FEF79F080036100700361000D6
:1003B0001C361000223610000236110002361300DF
:1003C00002F61F003A3603002236010022360000F2
:1003D0001C360000003600000036000000F69F03C7
:1003E0000030900400309008000090080000900851
:1003F00000009008000090080000900400009003A6
:1004000000000000000010000000900300009004B5
:10041000000090080000900800009008003090084C
:10042000003090080030900400F09F031C30000062
:1004300022300000023000000230000002300000D4
:100440003A30000022300000223000001C30000052
:100450000031000000330000FEFF1F0000331007D2
:10046000003190080030900000009000000010075C
:10047000000010080000100800009008000010079D
:1004800000000000000010000000100700009008AD
:1004900000009000000090000000100700301008DD
:1004A0000032100800339008FEFF1F0700330000E1
:1004B000003200001C30000022300000023000003A
:1004C00002300000023000003A300000223000000C
:1004D000223000001C30000000F01F0000309003AC
:1004E0000030900400309008000090080000900850
:1004F00000009008000090080000900400009003A5
:1005000000000000000010000000100E00001001AC
:10051000000090000000900000009000003090006B
:1005200000309000003610010036080E003604003E
:10053000003602000036010000B600000076000020
:10054000FE3700000076000000B600001C360900EF
:1005500022360E0002360E0002360F000236900FD1
:100560003A30900022309000220090001C0090074A
:100570000000900000009000000090000000900F2C
:1005800000000000000010000000900F000090002C
:1005900000009000000090000000900700309000E4
:1005A000003090000036920000368E0F00360E00AC
:1005B00000361E000036010000B600000076000084
:1005C000FE3700000076000000B600001C36010077
:1005D0002236020002360400023608000236100EEF
:1005E0003A30100122309000220090001C00900050
:1005F0000000900000009000000010010000100EAC
:100600000000000000007100000089000000890067
:10061000000089000000F900000089000000890046
:1006200000008900000001000000010000FFFF0140
:1006300000FEFF0000FC7F0000F83F0000F01F00FC
:1006400000E00F001CC00700228003000200010030
:1006500002FFFF013AFFFF0122800100224001005A
:100660001C20E1000010110000080900FE0709002D
:100670000000090000000900000011000000E10076
:1006800000000000000001000000490000004900D7
:100690000000490000004900000049000000490036
:1006A0000000010000000100C0FFFF07C0FFFF07BE
:1006B0000008FE03001CFE03001CFC01003EFC01C0
:1006C000003EF800007FF800007F70008CFF700093
:1006D00092FF2000C2FFFF07DAFFFF0712080100A8
:1006E0000C0401000002110000011100FE001100C5
:1006F00000001100000011000000110000000100C6
:100700000000000000007100000089000000890066
:1007100000008900FE07F900000889000010890028
:100720001C208900224001000280010002FFFF011D
:100730003AFEFF0022FC7F0022F83F001CF01F0061
:1007400000E00F0000C0070000800300000001006F
:1007500000FFFF0100FFFF01000001000000010099
:100760000000E10000001100000009000000090085
:100770000000090000000900000011000000E10075
:100780000000000000001000000090040000900431
:1007900000009004000090040000900400309004D9
:1007A000003090043E30100040F21F008033000003
:1007B00080330000C0330000003400003E380000E9
:1007C0000230000002300000023000001E30000045
:1007D000023000000230000002F01F003E30100026
:1007E0000030100100301001000010010000100165
:1007F00000001001000010010000100100001000B6
:1008000000000000FF01020304050607FFFFFFFFD1
:10081000FFFFFFFFFFFFFFFFFFFFFFFFFFFFFFFFE8
:10082000FFFFFFFF101112131415161718191A1BCA
:100830001C1D1E1F202122232425262728292A2B80
:100840002C2D2E2F303132333435363738393A3B70
:100850003C3D3E3F404142434445464748494A4B60
:100860004C4D4E4F505152535455565758595A5B50
:100870005C5D5E5F606162636465666768696A6B40
:100880006C6D6EFFFFFFFFFFFFFFFFFFFFFFFFFF2E
:10089000FFFFFFFFFFFFFFFFFFFFFFFFFFFFFFFF68
:1008A000FFFFFFFFFFFFFFFFFFFFFFFFFFFFFFFF58
:1008B000FFFFFFFF0FFFFFFFFF05FFFFFFFFFFFF32
:1008C000FFFFFFFFFFFFFFFF08FFFFFFFFFFFFFF2F
:1008D000FFFFFFFFFFFFFFFFFFFF09FFFFFFFFFF1E
:1008E0000AFFFF0BFFFFFFFF0CFFFFFFFFFFFFFFF4
:1008F000FFFFFFFFFFFFFFFFFFFF0DFFFFFFFFFFFA
:100900000EFFFFFF000000000000000000000000DC
:1009100000000000000000000000000000000000D7
:100920000000000000000000820086008E009E0093
:10093000BE00FF03BE009E008E0086008200000005
:1009400000000000000000008200C200E200F2008F
:10095000FA00FF03FA00F200E200C2008200000089
:10096000000000000000000086018601860186016B
:1009700086018703860186018601860186010000C3
:100980000000000000007800840002010201020162
:10099000020102018400480048004800860100006E
:1009A00000000000000000000000000000008200C5
:1009B00082008200820082008200C600BA0002002B
:1009C0000200020000000000FE030200020002001C
:1009D000020003000200020002000200FE03000009
:1009E0000000000000000000FF0100010001000104
:1009F000000100030001000100010001FF010000EF
:100A00000000000044000000000010003800280032
:100A1000480044008400FE000201020101020000BF
:100A20000000000044000000000078008400020183
:100A300002010201020102010201840078000000AB
:100A400000000000440000000000820082008200DC
:100A50008200820082008200820044003C0000008C
:100A60000000000000001C002200220022001200F2
:100A70001200120022004200820082007200000078
:100A800000000000000000002400000000003C0006
:100A9000400040007800440042006200DC0000009A
:100AA00000000000000000002400000000003800EA
:100AB000440082008200820082004400380000006E
:100AC00000000000000000002400000000004200C0
:100AD0004200420042004200420062005C0000000E
:100AE00000000000000010002800100000000000BE
:100AF00000000000000000000000000000000000F6
:100B000000000000000000000000000000000000E5
:100B100000000000000000000000000000000000D5
:100B20000000000000001000100010001000100075
:100B30001000100010001000000010001000000055
:100B40000000000000004400440044004400000095
:100B50000000000000000000000000000000000095
:100B60000000000000009000900048004800FE01D6
:100B700048002400FF01240024001200120000009D
:100B8000000000002000F8002C00240024002800B1
:100B900030006000E000A000A000A4007C00200065
:100BA0000000000000000E021101910051004E00F3
:100BB00020001000C801280224022202C101000006
:100BC00000000000000038004400440064003800C9
:100BD0000C001202310221014101C200FC0100009F
:100BE00000000000000010001000100010000000C5
:100BF00000000000000000000000000000000000F5
:100C000000000000000080016000300010000800BB
:100C1000080008000800080008001000300060000C
:100C20008001000000000600180030002000400095
:100C3000400040004000400040002000300018000C
:100C400006000000000010001000D6006C00280014
:100C50003800280000000000000000000000000034
:100C60000000000000000000000000000000100074
:100C7000100010001000FF01100010001000000014
:100C80000000000000000000000000000000000064
:100C90000000000000000000000018001800100014
:100CA000100008000000000000000000000000002C
:100CB00000000000FC000000000000000000000038
:100CC0000000000000000000000000000000000024
:100CD00000000000000000000000180018000000E4
:100CE0000000000000000001800080004000400083
:100CF000200020001000100008000800040004007C
:100D0000020000000000380044004400820082001D
:100D1000820082008200820044004400380000000B
:100D200000000000000010001E0010001000100065
:100D3000100010001000100010001000FE00000055
:100D40000000000000003E00420040004000400063
:100D50002000200010000800040002007E000000B7
:100D60000000000000003C00400040004000400047
:100D70003800400040004000400040003C000000BF
:100D8000000000000000200030002800280024009F
:100D9000220022002100FF0020002000200000008F
:100DA0000000000000007C000400040004001C009F
:100DB0002000400040004000400020001C000000D7
:100DC00000000000000078000400040002003A0067
:100DD0004600820082008200820044003800000049
:100DE000000000000000FE00800040002000200005
:100DF00010001000080008000800040004000000B3
:100E00000000000000007C0082008200820064007C
:100E10001800640042008200820042003C00000092
:100E200000000000000038004400820082008200C0
:100E30008200C400B8008000400040003C00000078
:100E4000000000000000000000000000000018008A
:100E5000180000000000000000001800180000004A
:100E6000000000000000000000000000000018006A
:100E7000180000000000000000001800180010001A
:100E80001000080000000000000000000000000149
:100E9000C00030000C000C003000C0000001000059
:100EA0000000000000000000000000000000000042
:100EB0000000FE0100000000FE0100000000000034
:100EC0000000000000000000000000000000020020
:100ED0000C003000C000C00030000C000200000018
:100EE0000000000000007E00C20082008000400080
:100EF00020001000080008000000080008000000A2
:100F000000000000000078008400E20093008900E7
:100F10008900C900C900E900B20346007C00000056
:100F20000000000000000000000010003800280051
:100F3000480044008400FE0002010201010200009A
:100F4000000000000000000000007E00820082001F
:100F500042003E0042008200820082007E000000CB
:100F600000000000000000000000F8008600020001
:100F7000010001000100010002000600F80000006D
:100F8000000000000000000000003E00420082005F
:100F90008200820082008200820042003E00000047
:100FA00000000000000000000000FE00020002003F
:100FB000020002007E00020002000200FE000000AB
:100FC00000000000000000000000FE00020002001F
:100FD000020002007E000200020002000200000087
:100FE00000000000000000000000F0010C010400FF
:100FF00002000200C201020104010C01F001000024
:10100000000000000000000000008200820082005A
:1010100082008200FE0082008200820082000000C6
:1010200000000000000000000000FE0010001000A2
:10103000100010001000100010001000FE00000052
:1010400000000000000000000000780040004000A8
:101050004000400040004000400040003C000000D4
:10106000000000000000000000008200420022009A
:1010700012000E000A00120062008200020100004D
:10108000000000000000000000000200020002005A
:10109000020002000200020002000200FE00000046
:1010A00000000000000000000000C300C300C700F3
:1010B000A500A500AD009900990081008100000005
:1010C00000000000000000000000820086008A008E
:1010D0008A0092009200A200A200C20082000000DA
:1010E0000000000000000000000078008400020101
:1010F00002010201020102010201840078000000E5
:10110000000000000000000000007E00820082005D
:10111000820042003E0002000200020002000000C5
:1011200000000000000000000000780084000201C0
:101130000201020102010201020184007800400064
:10114000800100000000000000003E00420042005C
:10115000420022001E001200220042008200000015
:1011600000000000000000000000FC0082000200FF
:1011700006001800600080008000C2003E000000F1
:1011800000000000000000000000FF01100010003F
:1011900010001000100010001000100010000000DF
:1011A00000000000000000000000820082008200B9
:1011B0008200820082008200820044003C00000025
:1011C0000000000000000000000001020201020116
:1011D00084008400440048004800300030000000D3
:1011E00000000000000000000000010201021201E6
:1011F000320132012A014A01CC00CC0084000000F7
:101200000000000000000000000001020201840054
:101210004800300030004800840002010102000054
:101220000000000000000000000001020201840034
:1012300044002800100010001000100010000000F2
:1012400000000000000000000000FE01000180001E
:10125000400020001000080004000200FE01000011
:10126000000000000000F800080008000800080066
:10127000080008000800080008000800080008002E
:10128000F80000000000020004000400080008004C
:10129000100010002000200040004000800080006E
:1012A0000001000000003E0020002000200020007F
:1012B000200020002000200020002000200020002E
:1012C0003E000000000020002000300050005800C8
:1012D0004800880084008400020100000000000033
:1012E00000000000000000000000000000000000FE
:1012F0000000000000000000000000000000FF03EC
:1013000000000000100020000000000000000000AD
:1013100000000000000000000000000000000000CD
:1013200000000000000000000000000000003C0081
:10133000400040007800440042006200DC000000F1
:1013400000000000000002000200020002007A001B
:101350004600820082008200820046003A000000BF
:101360000000000000000000000000000000F80085
:10137000040002000200020002000400F800000065
:101380000000000000008000800080008000B800A5
:10139000C4008200820082008200C400BC00000001
:1013A00000000000000000000000000000007800C5
:1013B00084008200FE00020002000400F800000029
:1013C000000000000000E001180008000800FE0115
:1013D00008000800080008000800080008000000D5
:1013E0000000000000000000000000000000B80045
:1013F000C4008200820082008200C400BC00800021
:1014000040003C00000002000200020002007200E6
:101410008A00860082008200820082008200000032
:1014200000000000000018001800000000001E006E
:10143000100010001000100010001000100000003C
:1014400000000000000030003000000000003C0000
:10145000200020002000200020002000200020008C
:1014600020001E00000002000200020002008200B4
:10147000620012000E000A003200420082000000EA
:101480000000000000003C002000200020002000A0
:10149000200020002000200020002000200000006C
:1014A0000000000000000000000000000000CD006F
:1014B000330111011101110111011101110100008C
:1014C00000000000000000000000000000007200AA
:1014D0008E0086008200820082008200820000006E
:1014E00000000000000000000000000000003800C4
:1014F0004400820082008200820044003800000024
:1015000000000000000000000000000000007A0061
:101510004600820082008200820046003A000200FB
:101520000200020000000000000000000000B800FF
:10153000C4008200820082008200C400BC008000DF
:101540008000800000000000000000000000E400B7
:1015500094008C0004000400040004000400000057
:1015600000000000000000000000000000007C00FF
:10157000020002000C003000400042003E0000006B
:101580000000000000000000000008000800FE004D
:10159000080008000800080008000800F00000002B
:1015A00000000000000000000000000000004200F9
:1015B0004200420042004200420062005C00000023
:1015C0000000000000000000000000000000010119
:1015D000820082004200440024002800180000001D
:1015E00000000000000000000000000000000102F8
:1015F0001102320132014A014A01CC00840000008C
:1016000000000000000000000000000000000201D7
:1016100084004800300030004800840002010000CF
:1016200000000000000000000000000000000102B7
:101630000201020184004C0048003000300010001C
:101640000800070000000000000000000000FE018C
:10165000800040002000100008000400FE0100008F
:10166000000000000000E00010001000100010005A
:10167000100010000C0010001000100010001000EE
:10168000E00000000000100010001000100010002A
:1016900010001000100010001000100010001000CA
:1016A0001000000000001C0020002000200020008E
:1016B00020002000C000200020002000200020008A
:1016C0001C000000000000000000000000000000FE
:1016D00000000E023102C101000000000000000005
:1016E0000000000011241FBECFEFD8E0DEBFCDBF49
:1016F00011E0A0E0B1E0EEEAFDE702C005900D9236
:10170000A630B107D9F721E0A6E0B1E001C01D92F3
:10171000A53FB207E1F70E94B53B0C94D53E0C946F
:1017200000009091AC01981303C08091AF0108951F
:101730009091AD01891303C08091B001089580910B
:10174000B101089580E00E94691E81E00E94691E37
:1017500082E00E94691E8DE30E94B03A80E00E9400
:10176000851E81E00E94851E82E00E94851E0895EC
:10177000A3E0B0E0EEEBFBE00C94243EA0902C0143
:10178000B0902D0189836A834B83CE0101966C0151
:1017900080E0E82E81E0F82E10E0F60101916F0163
:1017A0000023A9F0812F0E94691E0E94AA1EF70142
:1017B0008081918190932D0180932C01802F0E9434
:1017C000B03AB0922D01A0922C010E94A21E1F5F80
:1017D000F2E0EF0EF11C133001F72396EAE00C94CF
:1017E000403E8BEB92E00E945A1E84EB92E00E94F6
:1017F000B31E8091AA018F5F8093AA010895809102
:1018000007018130C9F48BE592E00E945A1E0E94C4
:10181000381E80910C010E94691E0E94AA1E0E941F
:10182000A21E60910D0170910E0180E090E026E50E
:101830004DEF0E94771F0895823011F40E94F10B42
:101840000895CF93DF93C62FD42F442319F00E941D
:10185000851E02C00E94691E81EE90E00E945A1E01
:101860008C2FDD2319F00E94851E02C00E94691E84
:101870000E94A21E609114017091150180911601C1
:101880009091170124E0409113010E94771FDF918E
:10189000CF910895A0E0B0E0E0E5FCE00C94263E96
:1018A00080910A01813039F4F090110100E010E0DC
:1018B000C1E1D1E05BC0833009F04CC0009114015C
:1018C00010911501209116013091170160911B01B3
:1018D00070911C0180911D0190911E01E0901301F7
:1018E00040911A010E940D12813029F428E1C22E84
:1018F00021E0D22E04C091E1C92E91E0D92EF6014B
:101900000381148125813681609122017091230128
:101910008091240190912501E280409121010E9453
:101920000D12813021F48FE1C82E81E0D82EF1E133
:10193000CF16F1E0DF0619F4C8E1D1E002C0C1E141
:10194000D1E08E01095F1F4FC016D10639F4095F3F
:101950001F4F04C008E111E0C1E1D1E08881F80126
:10196000F0808F1519F0F1808F11F9800E94F31E1D
:101970008881F81201C089810E94691E81EE90E081
:101980000E945A1E8F2D0E94691E0115110561F0DB
:1019900081EE90E00E945A1EF8018081F81202C088
:1019A000F80181810E94691E0E94FE1E0E94381E5D
:1019B0006B817C818D819E8124E04A810E94771F0A
:1019C0000115110551F00E94A21EF8016381748176
:1019D0008581968124E0428112C0CE010E9453315C
:1019E000813079F40E94A21E6091E5017091E601B8
:1019F0008091E7019091E80128E44091E4010E9480
:101A0000771FCDB7DEB7E8E00C94423EEF920F931C
:101A10001F93CF93DF9300915201109153012091B6
:101A20005401309155016091600170916101809184
:101A3000620190916301E090510140915F010E9429
:101A40000D12813019F4CDE5D1E002C0CFE4D1E030
:101A50000B811C812D813E8160916E0170916F011F
:101A60008091700190917101EA8040916D010E9416
:101A70000D12813011F4CBE6D1E00E94F31E888173
:101A80000E94691E8EEE90E00E945A1E89810E947B
:101A9000691E0E94FE1E0E94381E6B817C818D8112
:101AA0009E8126E44A810E94771FCE010E941D2458
:101AB0008C010F3F8FEF180749F00E94A21EB8015A
:101AC00080E090E024E04EEF0E94771F8B859C859C
:101AD000892B61F088E291E00E94BE1E6B857C85B7
:101AE00080E090E021E44D850E94771FDF91CF9147
:101AF0001F910F91EF900895EF920F931F93CF9343
:101B0000DF93EC016091BD017091BE018091BF0136
:101B10009091C00127EFE22E02E310E020E030E0D8
:101B20004091C1010E940D1287FD10C0CE010E949C
:101B3000BE1E6091BD017091BE018091BF01909168
:101B4000C00121E44091C1010E94771FDF91CF9134
:101B50001F910F91EF90089540E0FC016081818119
:101B60000E940628EFE4F1E063817481858196810B
:101B700026E442810E94771F0895CF93C62F0E94CA
:101B8000851E81E00E94B03A8C2F0E94851ECF9165
:101B90000895A0E0B0E0EFECFDE00C94253E0E943B
:101BA000F31E80910B01813051F4E0907A01E5E061
:101BB000DE2EF5E0FF2E85E000E010E020C182304F
:101BC000F1F4F0907901D0907F01C0907A01E0901B
:101BD0008001FD1006C0DE2C75E0E72EBB24B39417
:101BE0005AC0CE1409F408C1FE1000C1DC10FEC0BA
:101BF000EF2C35E0D32E45E0C42EB12C4CC0833001
:101C000009F03FC080E066E0282F30E090E0629F5E
:101C1000F001639FF00D1124E658FE4F492F50E06C
:101C2000981769F0649FD001659FB00D1124A758E3
:101C3000BE4FC0817C91C71302C095E085E09F5FD5
:101C4000933060F38F5F8330F8F2853048F086E0A0
:101C5000849F8001859F100D112407581E4F02C0DC
:101C600000E010E086E0829FE001839FD00D112408
:101C7000C758DE4FE98055E0D52E65E0F62E83E0AB
:101C8000C0C08AEE90E00E94AE1E80910B01805D84
:101C90000E94B03ABDC082E08F1590F080917A0129
:101CA0000E94691E86EE90E00E945A1E8F2D0E94AF
:101CB000691EC9E7D1E00FE711E0EF1017C01BC0A4
:101CC0000FE711E0C9E7D1E088810E94691E8AEE22
:101CD00090E00E945A1E8E2D0E94691E011511056A
:101CE00099F0FE1441F0F3E0FF1528F0F801E180CF
:101CF0008AEE90E004C0F801E08086EE90E00E9459
:101D00005A1E8E2D0E94691E0E94FE1EF4E0FC15D4
:101D1000F0F049E16D2D8C2D0E94DB238130B9F468
:101D20000E94A21E82E08F1518F081E991E002C0A6
:101D300085E991E00E945A1E8FE30E94B03A0E940A
:101D4000381E40E06D2D8C2D0E94210CB12C8CE7AB
:101D500091E00E94BE1E6A817B8180E090E026E5D2
:101D60004DEF0E94771F0E94A21E0115110539F543
:101D70008C819D818A3F910570F488E20E94B03A7F
:101D80006C817D8180E090E020E040E00E94771F40
:101D900089E20E94B03A688189810E947C1B81E0BF
:101DA0000E94DD2882E791E00E947C0DE1E0BE12F6
:101DB0002FC08AE791E00E94BE1ECE0127C0F80125
:101DC0006281738180E090E026E54DEF0E94771FED
:101DD000F1E0BF121DC08AE791E00E94BE1ECE0155
:101DE0000E94AC0D0E94A21EC80110C085E0D82E32
:101DF00095E0F92E25E0E22E85E00FE711E0C9E736
:101E0000D1E0CF2CF82EBB24B3945ECF0E94AC0D52
:101E1000CDB7DEB7E9E00C94413E8F929F92AF922E
:101E2000BF92EF92FF920F931F93CF93DF93809116
:101E300007019091AC01C091AE01D091AD0180FF3E
:101E400009C0192F0D2F7801DC2F95E9A92E91E0FB
:101E5000B92E08C01C2FC92F7E01012F81E9A82EA1
:101E600081E0B82E6FEF77E082E492E00E94EE1EF0
:101E70006FEF77E0C5010E94DB1E8091070182FFB2
:101E800003C08BE20E94B03A0E94381E0E94A20B4F
:101E9000602F8D2F0E944029892B31F00E94A21EB5
:101EA000602F8D2F0E94BD0D49E1612F8C2F0E9464
:101EB000DB23813061F40E94381E41E06091AE0165
:101EC0008091AC010E94210C84E0809330018DE868
:101ED00091E00E94BE1E6091B9017091BA0180919B
:101EE000BB019091BC0120E040E00E94771F0E945E
:101EF000A21E8091B20180FF02C085E603C081FF6F
:101F000003C083E60E94B03A6C2F812F0E944029C3
:101F10008C01892BA1F189E891E00E94BE1EF80195
:101F2000C281D381248135818090B9019090BA011A
:101F3000A090BB01B090BC01F4E68F169104A104FF
:101F4000B10498F0CE01821B930B63E070E00E9415
:101F5000A03D8AEF88169104A104B10418F4C61BB1
:101F6000D70B03C0EB01C20FD31FCE01A0E0B0E03E
:101F700026E54DEFBC01CD010E94771F02C0C0E0F5
:101F8000D0E08FE791E00E947C0DC53FD140E0F0AA
:101F90006E2D8F2D0E944029EC01892BA9F08A819A
:101FA0009B81823C914080F40E94381E6E2D8F2DC3
:101FB0000E94BD0D0E94A21E6A817B8180E090E09C
:101FC00026E54DEF0E94771FDF91CF911F910F9172
:101FD000FF90EF90BF90AF909F908F9008950F93D8
:101FE0001F93CF93DF93909107018091AE01C09131
:101FF000AD0190FF02C0D82F02C0DC2FC82F6C2F7C
:102000008D2F0E9440298C01892B31F00E94A21E45
:102010006C2F8D2F0E94BD0D8091070183FD52C052
:102020008091B5019091B601892B81F086E791E00E
:102030000E94BE1E6091B5017091B601072E000C82
:10204000880B990B26E54DEF0E94FF1F89E991E06F
:102050000E94BE1E6091C2017091C3018091C401B3
:102060009091C50126E44091C6010E94771F80919E
:10207000B3019091B401892B71F084E291E00E9448
:10208000BE1E6091B3017091B40180E090E024E045
:102090004EEF0E94771F01151105A1F00E94381E16
:1020A00081E00E94B03A0E94A21E8CE791E00E945B
:1020B000AE1EF8016281738180E090E026E54DEF6D
:1020C0000E94771FDF91CF911F910F9108950E9479
:1020D000A21E8091070180FF02C08EE401C080E54E
:1020E0000E94B03A8CEA91E00E945A1E08950E9424
:1020F000A21E8091070182FF03C087EA91E002C01F
:1021000082EA91E00E945A1E08950E94F31E809177
:10211000070184FF05C084EB91E00E945A1E03C0B2
:102120008AE40E94B03A80EB91E00E945A1E0E941D
:1021300067108091070184FD0E9477100E94FE1EA7
:102140000E94381E0E94A20B8091070184FD0E940C
:10215000EF0F8091070183FF1EC08CE291E00E9487
:102160007C0D8091B7019091B801892BA1F08AE193
:1021700091E00E94BE1E0E94381E0E94A21E609125
:10218000B7017091B801072E000C880B990B26E55A
:102190004DEF0E94FF1F08950E94F31E8DE991E00C
:1021A0000E945A1E0E9467100E9477100E94FE1E15
:1021B0000E94381E0E94A20B0E94EF0F089580918A
:1021C00006016FEF77E0823219F48EE392E002C0ED
:1021D00088E392E00E94DB1E0E94381E0E94A20B40
:1021E0008091B3019091B401892B71F084E891E062
:1021F0000E94BE1E6091B3017091B40180E090E036
:1022000026E54DEF0E94771F0895CF93DF936FEF80
:1022100077E084E392E00E94DB1E0E94381E0E9459
:10222000A20B8FE691E00E94BE1ECCE3D1E06D814F
:102230007E8180E090E026E54DEF0E94771F8CE7DD
:1022400091E00E94BE1E6B817C8180E090E026E5DB
:102250004DEF0E94771FDF91CF9108956FEF77E0E8
:1022600083EC91E00E94DB1E0E94381E0E94A20BAC
:1022700087E091E00E94BE1EE1E1F1E0638174819C
:102280008581968124E042810E94771F0895CF9333
:10229000DF938EE00E94AB1ACDE9D1E09F838E835D
:1022A00088EC8B838EE00E94AB1A2091E001820FB4
:1022B000911D27FD9A959F838E8389E18B83DF9102
:1022C000CF9108950E94573A80EE9FEF90932D0191
:1022D00080932C018FE292E00E945A1EF8940FB670
:1022E000F894A895809160008861809360001092B6
:1022F00060000FBE5E9883B7817F846083BF83B721
:10230000816083BF889583B78E7F83BF089588E2FD
:1023100092E00E94AE1E8091A7019091A8016AE010
:1023200070E00E948C3D80E090E026E54EEF0E9438
:10233000771F0E94A21E8091A7019091A80181158C
:1023400029E1920748F48FE190E090932D0180936A
:102350002C018CE192E014C0883E9C4148F48FEF40
:1023600097E090932D0180932C0180E292E008C0C9
:1023700080EE97E090932D0180932C0185E292E00E
:102380000E945A1E80EE97E090932D0180932C01BD
:10239000089585E00E94AB1A9C01AEEBBFE00E945D
:1023A000FB3D28EE33E040E050E00E94B43D2E5D5E
:1023B0003E4F3093A8012093A70184E68093A901A2
:1023C0002115394150F40E94573A0E94871188EB39
:1023D0009BE00E9439160E9462110895CF92DF920D
:1023E000EF92FF92CF93C1E02AE0C22ED12CE12CD4
:1023F000F12C6A3071058105910540F0A701960125
:102400000E94B43DCA01B901CF5FF3CF8C2FCF91A9
:10241000FF90EF90DF90CF900895A0E0B0E0E3E16F
:10242000F2E10C941D3E4B015C01342E2801390170
:102430001E2D9B01AC01D1E09AE0C92ED12CE12CDC
:10244000F12C2A3031054105510540F0CA01B9018E
:10245000A70196010E94B43DDF5FF3CFA301920173
:10246000C1E08AE0C82ED12CE12CF12C2A303105B4
:102470004105510540F0CA01B901A70196010E942A
:10248000B43DCF5FF3CF81149104A104B10459F19D
:10249000411451046104710409F1432D4D0FE12EE3
:1024A000EC0EE4164CF14E1129C0ED2FCD1754F46B
:1024B000AAE0B0E0A30192010E94113E2B013C0171
:1024C000CF5FF4CFEC1754F4AAE0B0E0A50194017B
:1024D0000E94113E4B015C01EF5FF4CF4814590498
:1024E0006A047B0448F081E084149504A604B704D0
:1024F00008F080E0819503C081E001C08FEFCDB787
:10250000DEB7E1E10C94393ECF92DF92EF92FF9279
:10251000CF93DF93C42FD22F2AE0C22ED12CE12CEF
:10252000F12CCD1791F0CD1744F4A70196010E942C
:10253000B43DCA01B901CF5FF4CFAAE0B0E09B017E
:10254000AC010E94113EC150ECCFDF91CF91FF90C2
:10255000EF90DF90CF900895CF93CAB18AB1857F75
:102560008AB90E94A53B99B193FF02C082E001C0E5
:1025700080E091FD8160CAB990913901913031F4C8
:10258000809338011092390110923B0190913B01E8
:102590002FEF290F293F18F49F5F90933B019091F3
:1025A000380180933801891771F1282F292720FFDE
:1025B0002695213029F5990F22E730E002C03595A4
:1025C00027959A95E2F72370821711F085E001C0F4
:1025D00084E090913A019F5F90933A019091390184
:1025E000891729F091E090933A0190933B018093F1
:1025F000390190913A01943030F010923A0104C0C0
:1026000081E08093390180E0CF910895A0E0B0E0AF
:10261000ECE0F3E10C941F3E6C01062F81E0809307
:10262000390110923A018093360180919E0185FF15
:1026300004C068E7E62EF12C02C0E12CF12C02FF69
:1026400008C080919D0180FD02C00C7F02C0C12C9A
:10265000D12C202F2370922E19F081E00E94223B72
:1026600032E0832EB12C42E3A42EC0E011E0D0E092
:1026700058E2752E802F8270682E202F2071522EE6
:102680000870C114D10449F083E0C816D10420F0C9
:1026900022E0C21AD10801C010E04F9935C08EE186
:1026A00090E00E943916C0E0112311F04F9B04C046
:1026B000CB3108F08EC008C0CF5FCB31C8F78AE0BD
:1026C00090E00E943916F0CF002309F485C082E320
:1026D00090E00E943916C4E1D1E04F990CC08EE120
:1026E00090E00E9439164F9906C088EC90E00E9455
:1026F0003916C1E0D3E0C1508AE090E00E9439165B
:10270000C111EBCF10E070C00E94AC12882351F1D0
:10271000BB2019F08D1711F073C0D82FB39480919E
:102720003B016B2D0E94723D9CE09A0DA82EA90ED4
:1027300028E1829FC001112424E0969587952A956F
:10274000E1F7893208F088E2869586958695833090
:1027500010F493E0892E8B1005C097E0981B90939E
:1027600036014EC0BB2029F080913B018A1508F04C
:1027700047C082E090E00E943916CF5F8C2F672D12
:102780000E94723D91110BC08091A901823020F00E
:1027900081508093A90103C051100E94C911C83C07
:1027A00019F5662059F0113029F480E00E94223B8F
:1027B00012E004C081E00E94223B11E0E114F10428
:1027C00071F081E0E816F10461F021E0E21AF1080D
:1027D00006C010E0D2E008C010E0D1E005C0C0E0C3
:1027E00003C0C0E010E0D7E680919E0180FF06C0E4
:1027F00080919E018E7F80939E0102C0111141CF76
:10280000992019F080E00E94223BD0933501D73601
:1028100011F40E9462118D2FCDB7DEB7EFE00C945A
:102820003B3E65E188EB9BE00E94061308950F9301
:102830001F93CF93DF93D82F882321F003E712E073
:10284000C3E003C00AE712E0C0E00E94C51BC8173E
:10285000E9F00E94573AC8010E945A1E84E692E0AD
:102860000E94B31E0E94C51BC81305C088EC90E0EF
:102870000E9439160BC060E184E690E00E940613C6
:10288000D13081F7882371F380E001C081E0DF91CE
:10289000CF911F910F910895681310C08FEF97E0AB
:1028A00090932D0180932C018AE20E94B03A80EE31
:1028B00097E090932D0180932C0108950E94A21E11
:1028C0000895A0E0B0E0E7E6F4E10C941F3E762E18
:1028D000642E552E59010FEF080F90902A01DD2428
:1028E000DA94D90C0E94F31E0E94AA1E0E94FE1EBA
:1028F00012E0D0E0C0E09A949A9481E0882E8D187E
:1029000081E0D81202C01F5FDC2FE62CF52CED0E03
:10291000F11CED0EF11CC12CCD1498F562E06C0D8C
:1029200081E00E94C539E1E0DE1629F06C2F8D2F81
:102930008C0D0E944C141130E1F0F1E07F1206C0C2
:10294000F701808191810E945A1E0AC0C7010E942E
:10295000B73EBC0180E090E020E040E00E94771F9D
:10296000A114B10419F0C5010E945A1E80E00E9412
:10297000F039F2E0EF0EF11CC3940C1568F6CD2C83
:10298000CBCF81E0D81209C060912A018091290142
:102990000E94C5398CE30E94B03A60E180E090E08B
:1029A0000E940613813091F18430D1F0853089F492
:1029B000C11106C00D1538F1D82DD00FC02F07C09A
:1029C000C150DC1321C0CD2FDD23F1F0D15012E036
:1029D00097CF8230D9F08736B9F40E94621114C0C3
:1029E0000C1304C00D1558F012E00AC0CF5F892DFA
:1029F0008D0FC81309C0C01738F4DF5FE8CF11E0AE
:102A0000D0E0C0E07DCFC02F11E07ACF0E94573ACE
:102A100084EF91E00E9439168C2FCDB7DEB7EFE03E
:102A20000C943B3EA9E0B0E0E8E1F5E10C942B3ECC
:102A3000182F84E391E09A83898381E08F8381E377
:102A400091E09C838B8382E088878FE492E09E8371
:102A50008D8319860E94573A6FEF77E0123019F490
:102A600082E992E002C08DE892E00E94DB1E20E045
:102A700030E0AE014F5F5F4F61E083E00E94611480
:102A8000FE01E80FF11D6781662319F0812F0E9476
:102A9000C9162996E3E00C94473EA7E2B0E0E3E5CF
:102AA000F5E10C942C3E88E192E09A83898386E0DC
:102AB0008B8F8CE092E09C838B8387E08C8F8EEFF2
:102AC00091E09E838D838AE08D8F8FEE91E09887D1
:102AD0008F838BE08E8F86ED91E09A8789878EE0D9
:102AE0008F8F81E091E09C878B8788E188A382EAC1
:102AF00092E09E878D8781E089A387E992E0988B99
:102B00008F8782E08AA382E992E09A8B898B83E0A7
:102B10008BA38DE892E09C8B8B8B84E08CA381E867
:102B200092E09E8B8D8B85E08DA38FEB91E0988F4B
:102B30008F8B84E18EA38FE492E09A8F898F1FA2FE
:102B40000E94573A6FEF77E087EA92E00E94DB1E1F
:102B500020E030E0AE014F5F5F4F61E08DE00E940A
:102B60006114FE01E80FF11D838DA796E2E00C943D
:102B7000483ECF930E944D1520919D0190E020FF8B
:102B80006BC020919E012F7D20939E01893191057C
:102B900008F048C0FC01EC5CFF4F0C94F53D0E942E
:102BA0008B1938C00E946C1735C082E001C081E0EB
:102BB0000E9412152BC00E94001728C00E94573A8D
:102BC0006FEF77E088E192E00E94DB1E2CE232E0BA
:102BD0004BE550E062E088E00E94611490E0880FCD
:102BE000991F855A9F4F0E94B73E0E9429350EC0FB
:102BF0000E94EC350BC00E94263708C00E941A3391
:102C000005C00E947A3302C00E946211C1E005C073
:102C10000E942339C82F01C0C9E680919D0180FD23
:102C200002C006C0C1E080919E01806280939E0137
:102C3000C11109C00E94573A84E592E00E945A1ED1
:102C40000E94111413C0C93689F40E94573A8EEAC3
:102C500092E00E945A1E0AC08931910510F0C1E02D
:102C600005C0FC01E35BFF4F0C94F53D8C2FCF9129
:102C7000089520919F01A0E0B0E0F3E0880F991F34
:102C8000AA1FBB1FFA95D1F72630D1F4492F5A2F2E
:102C90006B2F77274F5F5F4F6F4F7F4FE4E0440FFD
:102CA000551F661F771FEA95D1F7481759076A071E
:102CB0007B0728F4841B950BA60BB70B01C020E003
:102CC0001092B1001092B20032E03093B000309315
:102CD000700033B7317F232B23BF0FB607FC03C02F
:102CE000789430E001C031E047E00097A105B105DC
:102CF000F9F0A8958F3F9105A105B10509F010F4F1
:102D0000282F01C02FEF821B9109A109B109215081
:102D10002093B3004093B1002091B100222329F306
:102D200023B7216023BF889523B72E7F23BFF4CF1D
:102D3000311101C0F89408951F920F920FB60F92AF
:102D400011241092B1000F900FBE0F901F90189594
:102D5000E9EDF1E088EC90E0918380838CED90E0E8
:102D60009383828384E190E0958384838BE28683DE
:102D70001782108611860895E9EDF1E080E09191C7
:102D8000890F91E0E33EF907D1F7811101C081E09D
:102D900008951F93CF93DF93182F623019F0C7EF78
:102DA000D2E002C0CCEED2E00E94BC168093E301D8
:102DB0004BE050E0BE0189ED91E0123019F40E9421
:102DC000BD3E1AC00E949F3E0E94BC169091E30136
:102DD000992391F0891781F00E94573A86E492E096
:102DE0000E945A1E84E592E00E94B31E80ED97E097
:102DF0000E9439160E94A816DF91CF911F91089565
:102E00000F931F93CF93DF9381E0809326010E945D
:102E1000573A8EE591E00E94AE1EC9EDD1E068817F
:102E2000798180E090E024E04FEF0E94771F8AE5EF
:102E300091E00E94BE1E6A817B8180E090E024E0E8
:102E40004FEF0E94771F84E491E00E94BE1E6E81C6
:102E500070E080E090E026E444EF0E94771F81E478
:102E600091E00E94BE1E6C817D8180E090E024E0B4
:102E70004EEF0E94771F8AE691E00E94BE1E0DE988
:102E800011E0F8016681778180E090E026E54DEF62
:102E90000E94771F8DE391E00E94BE1EF8016085BD
:102EA000718580E090E026E54DEF0E94771F87E373
:102EB00091E00E94BE1E6885062E000C770B880BE1
:102EC000990B26E54DEF0E94FF1F0E941114DF9120
:102ED000CF911F910F910895A5E0B0E0E2E7F7E1EF
:102EE0000C941C3E81E00E941714612C712C1B82F3
:102EF000A12CB12C1A82C12CD12C412C882309F48D
:102F000084C1812C912C212CE12CF12C00E010E0CB
:102F10001D821C8262E0562E3324339421E02983E3
:102F20000E94573A0E94F31E81E40E94B03A80E367
:102F3000850D0E94B03A0E94FE1E0E94A21E34E03F
:102F4000531609F44EC0351568F082E0581699F012
:102F500093E0591205C180E00E94171480E094E6C6
:102F60009983FFC025E0521609F464C036E0531679
:102F700009F49FC0F5C081E491E00E94AE1E87E491
:102F800091E00E945A1E60E081E00E947C1B80E07C
:102F90000E94A2209D838C838639910518F4C80E67
:102FA000D91E439460E082E00E947C1B80E00E9476
:102FB000A2208C018639910518F4C80ED91E4394BD
:102FC00061E082E00E947C1B80E00E94A2207C01E4
:102FD00086E9E816F10408F0C3C0CE0CDF1C439468
:102FE000BFC08EE591E00E945A1E18B837B835B8B8
:102FF00034B880E00E940C1B9D838C8322E027B9AB
:1030000055B854B881E00E940C1B8C018C819D81C5
:10301000800F911FA80EB91E57B830E135B934B9E9
:1030200082E00E940C1B7C01A80EB91E8A818D5F74
:103030008A8396C08AE591E00E945A1E15B838B876
:1030400037B834B82091A5013091A6013D832C8377
:1030500080E00E940C1B2C813D81281B390B3D8395
:103060002C8332E038B937B984E084B90091A501E6
:103070001091A60181E00E940C1B081B190B8C818A
:103080009D81800F911F680E791E94E098B997B9C1
:1030900020E124B9E090A501F090A60182E00E9411
:1030A0000C1BE81AF90A6E0C7F1C3B813D5F3B83C9
:1030B00057C084E491E00E94AE1E87E491E00E9434
:1030C0005A1E40E060E081E00E9406288091510194
:1030D000843F91F48091560190915701A09158013D
:1030E000B091590185369105A105B10528F49D835C
:1030F0008C83880E991E239441E060E082E00E9458
:10310000062880915F01843F89F480916401909149
:103110006501A0916601B091670185369105A10511
:10312000B10520F48C01880E991E239442E061E0E1
:1031300082E00E94062880916D01843F89F480918D
:10314000720190917301A0917401B091750185365F
:103150009105A105B10520F47C01880E991E2394E8
:1031600081E017B818B814B815B8882319F10E946F
:10317000381E2C813D81C901A0E0B0E020E040E094
:10318000BC01CD010E94771F0E94A21EC801A0E0D1
:10319000B0E020E040E0BC01CD010E94771F0E941A
:1031A000A21EC701A0E0B0E020E040E0BC01CD01DC
:1031B0000E94771F3981343681F060E188EE93E018
:1031C0000E940613882349F0823029F454E6552ED4
:1031D00084E6898302C094E6998329812F5F29833D
:1031E000263008F49DCE539436E0351508F096CE7F
:1031F0008FE028120AC0C4016FE070E00E948C3D8D
:103200006093DF0191E0998301C019822FE042129F
:103210000CC0C6016FE070E00E948C3D7093DE012F
:103220006093DD0139813F5F39833A813F3009F096
:1032300069C08B818F3009F062C0E5E0F0E0C50124
:10324000BF010E948C3D9B01C301BF010E948C3DC8
:103250008B018091A5019091A6016C01CC0CDD1C25
:10326000C80ED91EC21AD30AC61AD70AE12CF12CED
:10327000D90120EA39E041E050E00E94113EA70167
:1032800096010E94B43DCA01B9016B5F7F4F8F4F19
:103290009F4F2AE030E040E050E00E94B43D2A3FDA
:1032A00031054105510538F43093DA012093D901F5
:1032B00099819F5F9983D80120EA39E041E050E08D
:1032C0000E94113EA70196010E94B43DCA01B901B6
:1032D0006B5F7F4F8F4F9F4F2AE030E040E050E020
:1032E0000E94B43D283181E038074105510538F48A
:1032F0003093DC012093DB0199819F5F99832981C1
:10330000243011F080E003C00E94001781E0259670
:10331000E2E10C94383EA0E0B0E0E1E9F9E10C9480
:103320001C3E81E00E941714882309F40EC1C12CB1
:10333000D12CE12CF12C00E010E0C1E092E0292E2C
:1033400028E0322E34EF432E36E0532E612C712CC0
:10335000D1E00E94573A0E94F31E84E50E94B03AE1
:1033600080E38C0F0E94B03A0E94FE1E0E94A21EB3
:10337000C33009F46BC0C8F5C13009F451C0C23084
:1033800009F0A8C085E591E00E94AE1E87E491E0B7
:103390000E945A1E2091A5013091A601A0E7B3E03A
:1033A0000E94FB3DA30192010E94D63D49015A01B2
:1033B00081E085B985E084B982E00E94151B6C012B
:1033C000C818D90881E184B981E00E94151B7C01ED
:1033D000E818F90884E085B984E184B980E00E94A6
:1033E000151B8C010819190975C0C53009F45DC099
:1033F00008F455C0C63009F06DC082E691E00E9425
:103400005A1E25B824B880E00E94151B8C0135B8DF
:1034100034B881E00E94151B7C0180E285B955C05B
:103420008EE00E94AB1A8EE00E94AB1A5C018AE625
:1034300091E00E945A1E0E94381EB50180E090E083
:1034400026E54DEF0E94771F80E045C080E591E0C2
:103450000E94AE1E87E491E00E945A1E0091A501D1
:103460001091A6011695079525B88AE084B982E0E7
:103470000E94151B6C01C01AD10A82E284B981E056
:103480000E94151B7C01E01AF10A35B888E284B964
:1034900080E00E94151B801B910B8C011BC080E0FB
:1034A0000E94171480E0D4E616C086E691E00E94E0
:1034B0005A1E15B824B880E00E94151B8C0134B840
:1034C00081E00E94151B7C0180E284B982E00E94A9
:1034D000151B6C0181E014B815B8882309F10E940E
:1034E000381E20E040E0B801012E000C880B990B3B
:1034F0000E94FF1F0E94A21E20E040E0B7010F2C97
:10350000000C880B990B0E94FF1F0E94A21E20E056
:1035100040E0B6010D2C000C880B990B0E94FF1F98
:10352000D43659F060E188EE93E00E9406138823B8
:1035300021F0823009F4C4E6D4E6DF5FD63008F427
:1035400008CFCF5FC73008F403CF81E0CDB7DEB737
:10355000E2E10C94383ECF93DF938F70C82FC064A4
:10356000C0937C00DC2FD07C8091A201D81721F081
:103570000E94A93BD093A20180917A00806480933D
:103580007A0080917A0086FDFCCF20E030E0A9012E
:1035900080E0E091A0018E1708F590917A00906488
:1035A00090937A0090917A0096FDFCCF609178001C
:1035B00070917900260F371F411D511D843061F431
:1035C000211594E0390740F4D03C31F09091A101ED
:1035D000913011F4C06CC4CF8F5FDBCFD03C29F4A5
:1035E000A091A301B091A40104C0A091A501B09144
:1035F000A6010E94113E2AE09695879577956795DA
:103600002A95D1F72E2F30E040E050E00E94B43DE3
:10361000C901DF91CF910895CF93C82F0E94A03B9D
:103620008C2F0E94AB1ACF910895CF93C82F0E9480
:103630009E3B8C2F0E94AB1ACF910895A0E0B0E082
:10364000E4E2FBE10C94263EE62E042FC7ECD1E029
:10365000888369834A83C82ED12CC601875F9F4F18
:103660000E94AF3E8E83F12CC701875F9F4F0E945F
:10367000AF3E8F8310E0C801875F9F4F0E94AF3E2F
:103680008887C6018A5F9F4F0E94AF3E8987C70126
:103690008A5F9F4F0E94AF3E8A87C8018A5F9F4F13
:1036A0000E94AF3E8B87C6018D5F9F4F0E94AF3E49
:1036B0008C87C7018D5F9F4F0E94AF3E8D87C801E9
:1036C0008D5F9F4F0E94AF3E8E87C6018050904015
:1036D0000E94AF3E8F87C701805090400E94AF3E4E
:1036E000888BC801805090400E94AF3E898BCDB737
:1036F000DEB7E8E00C94423E43E0481B461B0E94C4
:103700001E1B0895E7ECF1E04581648183810E94EE
:103710001E1B0895E7ECF1E080818383818184831F
:10372000828185830895CF93DF930E947C1B17B815
:103730009091CD0195B98091CE01892B84B980916A
:10374000D6010E940C1BEC018091D7010E94AB1A9C
:10375000AC012091A5013091A60136952795C901AC
:103760004E978C179D0760F4225E3F4FC217D30718
:1037700038F48417950720F481E04217530708F0C6
:1037800080E014B8DF91CF910895CF9361E080E09D
:103790000E94931BC82F62E080E00E94931BC80F19
:1037A00062E081E00E94931B8C0FCF9108950F93EC
:1037B0001F93CF93DF93D82FC62F17B818B814B81C
:1037C00015B80E947C1B8091D30187B98091D701E5
:1037D0000E94AB1A8C018091D40187B98091D601E7
:1037E0000E94AB1A0817190720F46D2F8C2F0E9426
:1037F0007C1B8091D30187B98091CE0184B9C2E34B
:103800008091D7010E94AB1A9C01203981E03807D2
:1038100038F0C15069F084E690E00E943916F0CF8C
:1038200087B19091D401982B97B92832310588F748
:1038300017B814B8DF91CF911F910F910895A6E0AA
:10384000B0E0E5E2FCE10C94223E17B818B815B8D8
:103850008FE384B980E00E94AB1A9A83898381E068
:103860000E94AB1A9C838B8382E00E94AB1A9E83DA
:103870008D83E12C02E018E2FF24F394AA24A394A0
:10388000B12C0F5F033009F400E0C02ED12C8E2D37
:1038900090E0002E02C0959587950A94E2F780FD8E
:1038A000F0CFC601805090400E94AF3E982E0E94FB
:1038B000AB1AF601EE0FFF1F21E030E02C0F3D1F89
:1038C000E20FF31F208131818217930768F49183FF
:1038D0008083212F30E02F1931092431310564F420
:1038E0001B3E50F41C5E08C08A30910518F4183253
:1038F00009F410E5F39402C0FF24F394833091059A
:1039000040F4C5010C2C01C0880F0A94EAF7E82A9C
:103910000BC08032934040F487B0C6018D5F9F4F4B
:103920000E94AF3E882987B987E0E81681F11F150C
:1039300040F581E0809306018093070100930C011C
:10394000C6018D5F9F4F0E94AF3E97B1809598232F
:1039500097B9C6018A5F9F4F0E94AF3E182FC601DC
:10396000875F9F4F0E94AF3E94B1812B8095892342
:1039700084B9892D0E94AB1A90930E0180930D019A
:1039800006C0A89582E390E00E9439167ACF14B859
:1039900017B82696ECE00C943E3ECF93C82FC09506
:1039A00095B160FF02C0982B01C09C2395B994B1DA
:1039B000892B84B963FF03C00E94A43B02C00E940C
:1039C0009F3B84B18C2384B985B1C823C5B9CF91FD
:1039D0000895A0E0B0E0EFEEFCE10C94273E6130EA
:1039E00039F0623071F06330A9F080E090E04DC0B2
:1039F000CBE6D0E0E7E0F0E002E310E028EE33E0D1
:103A000011C0CDE7D0E0ECE2F0E009E110E02CE2FB
:103A100031E008C0CBE1D0E0EEE1F0E009E110E0F8
:103A200028EC30E08217930768F1821B930BB801F2
:103A30000E948C3DD02ED81ACB019927E817F907A0
:103A400008F46E2FC60FD11DC60FD11DCE010E94E6
:103A5000B73E7C01CE0102960E94B73EFC01E81AF7
:103A6000F90ADE9C9001DF9C300D1124C801969567
:103A70008795820F931FB8010E948C3DCF01860F5E
:103A8000971F03C0D02E60E0DDCFCDB7DEB7E7E0F3
:103A90000C94433ECF93DF9390910601913009F44B
:103AA000C3C0A8950E941E1B15B88091CE0184B991
:103AB0008091D30187B988B960E18091CF010E94DC
:103AC000CD1C8091D7010E940C1BEC019091CE017E
:103AD0008091CF01892B84B98091D7010E940C1B62
:103AE0002091CE0124B98C179D0720F485309105D3
:103AF00008F498C0C13D23E0D20700F161E1809154
:103B0000CF010E94CD1C8091D7010E940C1BEC01BB
:103B10008091CF0185B99091CE01892B84B9809194
:103B2000D7010E940C1B15B82091CE0124B98C1727
:103B30009D0720F48530910508F474C0C031D1058B
:103B400060F080910801811103C0CE010E94472DD1
:103B5000C13D83E0D80708F048C080910801811179
:103B60001BC08091CE0184B915B88091D30187B96B
:103B700088B90E94A03B9091CE018091CF01892B02
:103B800084B98091D7010E940C1B8F359D4020F095
:103B9000BE0182E00E94902B8091080181112DC00E
:103BA0008091D40187B918B89091CD018091CF014F
:103BB000892B84B985B98091D6010E940C1B803471
:103BC000964060F40E94FC2E811108C0809106018D
:103BD000813221F0BE0181E00E94902B809108018A
:103BE00081110BC00E94EE2F08C080910801811145
:103BF00002C00E949D2F0E945329809106018823B4
:103C000011F08A3019F40E946E2107C08F3129F417
:103C10008091070184FD0E94522A17B818B814B881
:103C200015B802C0EC0199CFDF91CF910895809132
:103C300009018823E1F09091080190FD18C091FDE1
:103C400004C0909106019E3190F48093060180910A
:103C50003C018093AC0180913D018093AD01809146
:103C60003E018093AE018091100180930F01089571
:103C7000CF936091280180912A01681315C0C091EB
:103C80002601C0FD0E941114C1FF0BC0C0912A0182
:103C9000C23028F08C2F0E94F039C150F9CF62E079
:103CA00004C00E94573A04C06F5F81E00E94C5398A
:103CB000CF910895CF93DF93EC01CE010E94AF3EE8
:103CC000882321F00E94B03A2196F7CFDF91CF915F
:103CD00008950F931F93CF93DF93C6E2D1E00E8137
:103CE0001F81E82FF0E0EE0FFF1FE050FF4F208113
:103CF00031813F832E838F5C0E94B03A1F830E83F5
:103D0000DF91CF911F910F9108950F931F93CF9340
:103D1000DF93C6E2D1E00E811F81E82FF0E0EE0FC5
:103D2000FF1FE050FF4F208131813F832E830E948F
:103D3000910B0E94B03A1F830E83DF91CF911F91A8
:103D40000F91089580E20E94B03A08958DE20E949A
:103D5000B03A08958AE30E94B03A08950E945A1E2C
:103D60000E94A21E0895CF93DF93EC010E94381E9B
:103D7000CE010E945A1EDF91CF910895CF93DF9319
:103D8000EC010E94381ECE010E945A1E0E94A21E03
:103D9000DF91CF91089582E00E94F03962E081E0E6
:103DA0000E94C539089583E00E94F03963E081E004
:103DB0000E94C53908950F931F93CF93DF93C6E2F6
:103DC000D1E00E811F817F836E830E945A1E1F8364
:103DD0000E83DF91CF911F910F9108950E94DB1EFA
:103DE0000E94A21E0895E6E2F1E086819781918704
:103DF00080878FEF97E0978386830895E6E2F1E06E
:103E000080859185978386830895CF92DF92FF9274
:103E10000F931F93CF93DF93D42F022F2AE043E415
:103E200051E00E94533EE3E4F1E001900020E9F705
:103E30003197CF0183549140F82EDD2369F08D171F
:103E400028F0C82FCD1BD0E041F401C0D81B80E37F
:103E50000E94B03AC0E001C0C4E683E4C82E81E00D
:103E6000D82E10E01F1598F41C130AC08EE20E9491
:103E7000B03ADD2329F080E30E94B03AD150F9CF67
:103E8000F60181916F010E94B03A1F5FEBCF0023D2
:103E900019F0802F0E94B03ADF91CF911F910F91BE
:103EA000FF90DF90CF900895CF92DF92EF92FF9234
:103EB000CF93DF936B017C01C42FD22F97FF0AC0F1
:103EC0000E94A61EF094E094D094C094C11CD11C12
:103ED000E11CF11C2D2F4C2FC701B6010E94051FBC
:103EE000DF91CF91FF90EF90DF90CF900895A0E009
:103EF000B0E0EDE7FFE10C94223E6B017C01C42FA2
:103F0000122F9AE0892E912CA12CB12C80E1C81699
:103F100087E2D806E104F10470F0C701B6016B5FD7
:103F20007F4F8F4F9F4FA50194010E94B43D6901BF
:103F30007A01CF5FEBCFC13FACF08FE08C0F23E075
:103F4000622F0E947E3DD92F992319F08F5F291B84
:103F5000D22F883040F490E087529F4F0E94AF3EAE
:103F6000082F02C0D0E000E04AE063E471E0C6013F
:103F70000E94753EE3E4F1E001900020E9F73197FB
:103F8000E354F140BE2ECE2FCD1B1C165CF080E317
:103F90000E94B03A8EE20E94B03ACC2319F080E33E
:103FA0000E94B03AD11101C0CFEFC15083E4C82EB6
:103FB00081E0D82EE12CF12C0C2E000CDD0BEB1443
:103FC00078F4F60181916F010E94B03ACE15DF05B9
:103FD00019F48EE20E94B03AFFEFEF1AFF0AEFCF1A
:103FE000002319F0802F0E94B03A112319F0812F7D
:103FF0000E94B03ACDB7DEB7ECE00C943E3ECF92D3
:10400000DF92EF92FF92CF93DF936B017C01C42F7D
:10401000D22F97FF0AC00E94A61EF094E094D0947D
:10402000C094C11CD11CE11CF11C2D2F4C2FC701C9
:10403000B6010E94771FDF91CF91FF90EF90DF9044
:10404000CF900895CF93C82F80910F01982F990F8B
:10405000890FE62FF0E0E80FF11DE652FF4FE491E3
:10406000EE2329F180913301815060913401E4FF06
:1040700004C0909132019695690FE1FF04C09091C0
:1040800031019F5F890FE2FF04C09091320191508E
:10409000690F0E94C5398C2F0E94910B883721F43B
:1040A0008C2F0E94851E03C08C2F0E94691ECF9109
:1040B0000895CF93DF932091320130912A0191E04E
:1040C000920F3917E0F190912901903118F0280FE3
:1040D000231738F0309328010E94381E93E082E0C5
:1040E00003C020913101921B9093330180933401DE
:1040F00060E08091AC010E94222061E08091AD01DE
:104100000E94222062E08091AE010E942220C09194
:104110002C01D0912D018FEF97E090932D0180938A
:104120002C0160913401809133010E94C539809146
:104130000F010E94313BD0932D01C0932C01DF91E0
:10414000CF9108954F925F926F927F928F929F923C
:10415000AF92BF92CF92DF92EF92FF921F93CF93D5
:10416000DF93C82F0E941F1C80910601813009F443
:1041700056C018B88091D40187B98091CD0185B916
:1041800084B90E949F3BC12CD12C760181E0182F6D
:10419000117080FF03C08091D60102C08091D701C9
:1041A000A895806C80937C000E94A93B80917A0046
:1041B000806480937A0080917A0086FDFCCFD4E6FB
:1041C000812C912C540180917A00806480937A0034
:1041D00080917A0086FDFCCF8091780090917900E3
:1041E000880E991EA11CB11C0E94A63BD15059F704
:1041F000A091A301B091A401A50194010E94113ED8
:104200004B015C018AE0B694A794979487948A95B1
:10421000D1F782E0112331F075016401B8CF80E05D
:1042200090E04CC015B89091D4018091D301892BB6
:1042300087B98C149D04AE04BF04D8F52091A50164
:104240003091A601A4E6B0E00E94FB3D9B01AC01C9
:104250002C193D094E095F090E94113E2B013C01BA
:10426000A7019601281939094A095B09A8EEB3E0AC
:104270000E94113E6B017C012091DB013091DC0139
:104280002057354E40E050E0C301B2010E94B43DDA
:10429000C701B6010E94B43DC901C13061F460910B
:1042A000DD017091DE016217730718F4861B970B0E
:1042B00002C080E090E020EC2093A201DF91CF913A
:1042C0001F91FF90EF90DF90CF90BF90AF909F90A5
:1042D0008F907F906F905F904F900895A0E0B0E036
:1042E000E4E7F1E20C941C3EA89518B88091D40143
:1042F00087B98091CD0184B985B98091D7010E9499
:104300000C1B4C018091D6010E94AB1AEC0115B830
:104310008091D00184B98091D6010E940C1B4597F1
:1043200008F044C28091D00185B98091D6010E94E5
:104330000C1B6C018091D30187B988B915B88091A5
:10434000CE0184B98091D6010E940C1B2C01809172
:10435000D7010E94AB1A3C018091D10184B98091B0
:10436000D7010E940C1B5C01C03321E1D20728F465
:1043700032E6C316D10438F019C24CE6C41643E144
:10438000D40608F013C259EA6516710408F070C02B
:1043900086E2A816B10408F409C2D60120EF3BE278
:1043A00047E050E00E94113EC091A501D091A601C6
:1043B0009E012C193D0940E050E00E94B43D2901C6
:1043C0003A01DE01AA19BB0920EF3BE247E050E0C9
:1043D0000E94113E850120E030E0A90198010E9471
:1043E000B43DEEEDCE16E3E0DE0680F4D301C2016B
:1043F000D2E0880F991FAA1FBB1FDA95D1F7BC0125
:10440000CD01620F731F841F951F14C0FEEDAF1600
:10441000F3E0BF06B0F4DA01C901C2E0880F991FCA
:10442000AA1FBB1FCA95D1F7BC01CD01640D751D34
:10443000861D971D25E030E040E050E00E94B43D2D
:104440000CC0D301C201820F931FA41FB51F9C0192
:10445000AD015695479537952795225A3E4F4F4FB8
:104460005F4FAAE0B0E00E94113E4B015C01B3C077
:10447000C815D90508F483C04614570408F47FC052
:104480004091A5015091A601C417D50709F42197C1
:104490002091DB013091DC012057354EDE01A81957
:1044A000B9090E94FB3D9A012C1B3D0B40E050E0F6
:1044B0000E94B43D49015A012091D9013091DA019D
:1044C0002057354ED201A619B7090E94FB3D830142
:1044D00020E030E0A90198010E94B43DCE3DD340D8
:1044E00080F4D501C401F2E0880F991FAA1FBB1FF9
:1044F000FA95D1F7BC01CD01620F731F841F951F80
:104500001BC0EEED6E16E3E07E0660F5283FF4E298
:104510003F07F1E04F075105A0F4DA01C901E2E0DD
:10452000880F991FAA1FBB1FEA95D1F7BC01CD01C7
:10453000680D791D8A1D9B1D25E030E040E050E0AC
:104540000CC0A9E0B0E00E94113E680D791D8A1DE3
:104550009B1D2AE030E040E050E00E94B43D49015C
:104560005A0139C0D501C401820F931FA41FB51F82
:104570004C015D01B694A794979487942CC02FE8C2
:10458000621622E1720608F001C181E00E94A220B9
:104590002C01612C712C812C912C540120E030E0F5
:1045A000A901280D391D4A1D5B1DAAE0B0E00E943B
:1045B000113E611571058105910521F464E670E0F5
:1045C00080E090E0461657066806790658F45301D5
:1045D0004201CEEF08C034E683169104A104B10471
:1045E00008F4C0C0CFEF80E0D7E02AE0F22E90912F
:1045F0000A01891708F09DC0682E712CD69D900184
:10460000D79D300D1124F901EF5EFE4F6F0120811F
:104610009091C701291389C021819091C801291364
:1046200084C0E12C02E010E020E030E04C2FC50116
:10463000B4010E940D128F3F09F03FC0F601638163
:1046400074818581968102E010E020E030E04281B3
:104650000E940D128F3F51F5F6014281C41719F0E7
:1046600055245A9402C055245394D69DC001D79D19
:10467000900D11249C012F5E3E4F6901F901638169
:10468000748185819681EC2E950184010E940D1222
:10469000F601581206C083809480A580B680C2813E
:1046A00005C083829482A582B682C283140125014B
:1046B00056944794379427940AC0C501B40124E165
:1046C00030E040E050E00E94B43D19012A01D69D3F
:1046D000C001D79D900D11249C012F5E3E4F6901B2
:1046E000F9016381748185819681EC2E95018401A5
:1046F000021913092409350942810E940D1287FD10
:1047000016C095018401020D131D241D351DF601EF
:10471000638174818581968142810E940D121816F1
:1047200034F0F092060184E662CF8F5F60CF88ECB0
:104730005ECF8436D9F19330C8F527E0929FF0011F
:104740001124EF5EFE4F8091C80180838091C701E4
:10475000818383829482A582B682C2839F5F909375
:104760000A0124C081E00E94A2202C01612C712C3E
:10477000A5019401220F331F441F551F85E08816A1
:104780009104A104B10408F40CCF0FCF81E00E9482
:10479000A2202C01612C712C8AE0882E912CA12C56
:1047A000B12C24E130E040E050E0FFCECDB7DEB7E1
:1047B000E2E10C94383EEF920F931F93CF93C42FF6
:1047C00010920A010E947C1B0E946E2180910A01B6
:1047D0008130B1F4CC23B1F0009114011091150196
:1047E00020911601309117016C2F70E080E090E06D
:1047F000E090130143E00E940D1291E0813019F026
:1048000090E001C091E0892FCF911F910F91EF901F
:104810000895813138F0815115BC92E094BD87BD77
:1048200081E0089580E0089516BC81E085BDA99BD4
:10483000FECF15BC82E085BB0895A4E0B0E0E3E2C2
:10484000F4E20C941C3E009729F46FEF7FEF7C8319
:104850006B8338C19C838B83FC0163817481858168
:104860009681A7EFEA2E0AE010E020E030E04281D6
:104870000E940D1287FDE9CF0E941F1C8091060146
:10488000813019F3EB81FC81618180810E94D71B0B
:10489000EB81FC81618180810E947C1B0091D601AB
:1048A0008091D701006C806C8A8315BC82E084BD46
:1048B00081E287BD18B800937C000E949F3BFFEF08
:1048C000F983812C912C54018394412C512C320179
:1048D000439480E090E052E3C52ED12C16EDA895CC
:1048E000C29758F48091D40187B98091CD0185B9E0
:1048F00084B90E94B23B14B815B822E3C216D104A1
:1049000058F48091D30187B98091CE0185B984B9DB
:104910000E94B23B14B815B88091D30187B9809139
:10492000CD0185B984B900937C0010937A00809101
:104930007A0086FDFCCF10937A0080917A0086FD84
:10494000FCCF20907800309079006A8160937C00E1
:1049500010937A0080917A0086FDFCCF10937A0044
:104960000E94AE3B0E9414248091CE0185B984B987
:104970000E94B23B14B880917A0086FDFCCFC090B3
:104980007800D09079008091D40187B98091CE01D0
:1049900085B984B97A8170937C0010937A008091F4
:1049A0007A0086FDFCCF10937A0080917A0086FD14
:1049B000FCCFE0907800F090790000937C00109399
:1049C0007A0080917A0086FDFCCF10937A000E94D5
:1049D000AE3B0E9414248091CD0185B984B90E9418
:1049E000B23B14B880917A0086FDFCCF80917800AC
:1049F00090917900A70160E070E0420D531D611DA8
:104A0000711D440E551E661E771EAC0160E070E0FD
:104A10004C0D5D1D611D711D840E951EA61EB71ED9
:104A2000E981E150E983E1115ACF17B815B848146C
:104A300059046A047B04E8F58091D9019091DA0168
:104A40002AE0289FD001299FB00D1124A5019401CF
:104A500024193509460957090E94113EA301920104
:104A60000E94B43D8091DD019091DE018217930791
:104A700020F4B901681B790B19C0EB81FC816381BB
:104A80007481858196812AEFE22E08EE13E020E002
:104A900030E042810E940D1221E030E0181614F43B
:104AA00020E030E066277727621B730B7C836B83E3
:104AB00004C08FEF9FEF9C838B8380EC8093A201D7
:104AC0000E941F1C8B819C812496E2E10C94383E4D
:104AD000A0E0B0E0EEE6F5E20C941D3E6C01D1E101
:104AE000C3E00E941F1C80910601813009F42BC194
:104AF00018B88091D40187B98091CE0185B984B965
:104B00008091D6010E94AB1A5C018091D7010E946E
:104B1000AB1AA81AB90A15B814B8E12CF12C8FEF0A
:104B2000E81AF80A6D2F8091CD010E94CD1C80916A
:104B3000D6010E94AB1AA816B90690F48C010A1986
:104B40001B09EEE7EE16F10429F40B34110508F009
:104B5000FEC00CC00C32F1E01F0740F491E007C02A
:104B600000E010E0FEE7EF16F104C1F790E084EFFB
:104B7000E81681E0F80609F490E0A8959111CFCFEE
:104B80000C32E1E01E0708F4C1E0F1E0EF16F10499
:104B900059F4053185E0180738F08D2F8071D9E080
:104BA00009F09FCFC2E0D1C0C33009F0CEC08091E0
:104BB000D6010E94AB1A5C01470180E090E08114AD
:104BC000910449F0E1E08E1A91088091D6010E948B
:104BD000AB1AA895F4CF8A159B0540F4A81AB90A18
:104BE000F5E6AF16B10420F0C0E002C0A12CB12C54
:104BF0008091D6010E94AB1A4C018D2F8071382E06
:104C000019F00E94943B02C00E94993B8091D6010A
:104C10000E94AB1A8815990518F4881A990A02C0DF
:104C2000812C912CC33009F090C062E0C8018A0D3C
:104C30009B1D0E94E91C9C01D7010E94FB3D2B019A
:104C40003C01332031F1AAE0B0E09B01AC010E94AD
:104C5000113E2B013C016833E9E87E07E1E48E0751
:104C6000910508F47BC0C301B20128EE33E040E0B7
:104C700050E00E94B43D29013A01A8EEB3E00E9441
:104C8000113ECAEF332089F022E434E040E050E0E6
:104C900010C0683379488144910528F7A8EEB3E045
:104CA000A30192010E94113EC7EF20E134E040E0F1
:104CB00050E00E94B43D8091C801F601808380914C
:104CC000C7018183C28347825086618672862383AF
:104CD0003483458356839AE0492E512C612C712CE4
:104CE0002130F5E33F07FCE04F07510540F0CA01D2
:104CF000B901A30192010E94B43DCF5FF1CFD4016D
:104D00000E94113E28EE33E040E050E00E94B43DA6
:104D1000D3FDCF5F8AE0882E912CA12CB12C2115D8
:104D2000310581E04807510540F0CA01B901A501EC
:104D300094010E94B43DCF5FF2CFF6013487238700
:104D4000C58783E013C080E011C08C2F0FC091E0B5
:104D50000C3281E0180708F410CF0ECFA8EEB3E0B4
:104D60009B01AC010E94113EC7EF8ECFCDB7DEB7DD
:104D7000E1E10C94393EA0E0B0E0E1ECF6E20C9405
:104D8000243EEC010E941F1C80910601813009F431
:104D900072C015B887E087B918B88091D00184B97E
:104DA00080E480937B0084E480BF8091D60180649E
:104DB00080937C0086E080937A000E94A83B10924A
:104DC000800010928100109285001092840087E28A
:104DD00086BB8091D00185B9809106018F3129F47D
:104DE0008091D3018095877002C08091D40191E0B9
:104DF0009093810087B9E12CF12C86B385FD0CC01E
:104E000080FFFBCF96BBA8952FEFE21AF20A20E4B1
:104E1000E21626E0F20689F71092810090E296BB36
:104E2000C0908600D090870014B820918400309103
:104E30008500C216D30638F480FF05C081E086BB2A
:104E40008FEFE81AF80A86E980937A0080917B0058
:104E50008F7B80937B008091D6010E94AB1A5C010E
:104E600015B88091D00184B920E4E21626E0F2065C
:104E700020F081E0C6C080E0C4C0C601A0E0B0E080
:104E80006701E12CF12C7601DD24CC24C82AD92A33
:104E9000EA2AFB2A83E0C816D104E104F104C8F031
:104EA00082E0C81AD108E108F10828E3C21629E80F
:104EB000D20621E4E206F10460F0C701B60128EE53
:104EC00033E040E050E00E94B43D69017A0117EF01
:104ED00001C014EF2091E1018091A3019091A40100
:104EE00061E0820F911D27FD9A950E94E91CDC016B
:104EF000A70196010E94113E20E233E040E050E01D
:104F00000E94B43D143F89F48091DF0190E0A0E05D
:104F1000B0E0281739074A075B0750F069017A01AA
:104F2000C81AD90AEA0AFB0A06C069017A0103C055
:104F3000C12CD12C76018091C80188838091C70152
:104F400089831A832F83388749875A87CB82DC82EB
:104F5000ED82FE82143F49F480EAC81686E8D8063E
:104F600081E0E806F10460F44BC0173F09F048C047
:104F700021E2C2162EE4D206E104F10408F040C09A
:104F80008091D6010E94AB1A853D9340C8F714B8B2
:104F90001092A1018091D6010E94AB1AEC0181E030
:104FA0008093A1018091D6010E94AB1AAC0180913F
:104FB000D00184B9DE01A41BB50BC091A301D0912F
:104FC000A401CD010496099788F09E010E940A3E33
:104FD0009A0140E050E00E94D63D8091E001280F08
:104FE0002093E001CC0DD11DC7FCDA9585010C1B87
:104FF0001D0BC801C1968336910510F40093E101A1
:1050000083E0CDB7DEB7EAE00C94403EA0E0B0E02C
:10501000ECE0F8E20C94243EC42ED12C2EE0429F0A
:10502000F0011124E15BFE4F1082118294EF928314
:1050300017821086118612861382148215821682B8
:105040001486138690910601913009F47EC0B62E25
:10505000F82E9A3091F4C1E1D1E0A12C07C08881EB
:105060008F1591F08B15A1F0A394279680910A01DA
:10507000A816A8F384E6A81268C06B2D8F2D0E9495
:1050800040290097C9F41FC099819B11EBCF03C041
:105090008981F812E9CF6B817C818D819E81E12C21
:1050A0000AE010E020E030E04A810E940D128F3FBC
:1050B000D9F683E6A82ED8CFFC01828193818C3D5E
:1050C000954008F442C08EE08C9DE0018D9DD00D8E
:1050D0001124C15BDE4F6B2D8F2D0E947C1BCE01F6
:1050E0000E946825823019F4CE010E94BB2680916F
:1050F0000601843120F58A3079F48EE08C9DF00130
:105100008D9DF00D1124E15BFE4F82818A3FBCF042
:105110008BE08093060113C08EE08C9DF0018D9D85
:10512000F00D1124E15BFE4F8281853F8CF7838176
:105130009481A581B6810597A105B10548F70E9424
:105140001F1C17B818B814B815B8CDB7DEB7EAE009
:105150000C94403EE09106018E2F90E0FC017E977A
:10516000E730F105E0F4EA59FF4F0C94F53D85E492
:1051700093E422E41BC08091070186FD14C083E5FF
:1051800094E413C085E493E410C083E491E40DC07B
:1051900081E392E30AC081E392E325E407C080E063
:1051A00090E020E003C088E798E727E42093AF0170
:1051B0009093B0018093B1010895CF92DF92EF9266
:1051C000FF92CF93C82F15B88091CE0184B98091FA
:1051D000D30187B988B98091D7010E940C1B843014
:1051E000910500F1C090D901D090DA01E12CF12CA9
:1051F000893725E0920770F0C13061F414B89091BE
:10520000D3018091D401892B87B98091D7010E9465
:10521000AB1A06C020E9C20E2AE1D21EE11CF11C25
:10522000C9EF0FC08091D10184B98091D7010E944C
:105230000C1B20EFC22E2BE2D22E27E0E22EF12C07
:10524000C8EF17B818B814B815B8DC0120EA36E86A
:1052500041E050E00E94113EA70196010E94B43D3A
:105260002093BD013093BE014093BF015093C00114
:10527000C093C101CF91FF90EF90DF90CF90089540
:1052800090910B01E9E7F1E0992349F0208128137F
:1052900003C02181261729F091503696F5CFE0E022
:1052A000F0E0CF010895A0E0B0E0E9E5F9E20C9468
:1052B000223EA8950E941F1C80910601813009F4AE
:1052C000ECC018B88091D40187B98091D6010E94B2
:1052D000AB1A982EA92E8091D00184B985B961E1CD
:1052E0008091CF010E94CD1C8091D6010E940C1BA1
:1052F000B82E892E8091CD0184B985B961E1809164
:10530000CF010E94CD1C8091D6010E940C1B6C0124
:105310008091D7010E94AB1A8C010E941F1C8091C2
:105320000601813009F4B9C018B88091D40187B959
:105330008091D6010E94AB1A7C0117B88091D301ED
:1053400088B987B915B88091D10184B960E180919D
:10535000CF010E94CD1C8091D6010E940C1BEC0154
:105360008091D7010E94AB1AC817D90718F0C81B43
:10537000D90B02C0C0E0D0E0C01AD10A8091CE01A2
:1053800084B960E18091CF010E94CD1C8091D6014B
:105390000E940C1B8C018091D7010E94AB1A081B44
:1053A000190B17B80C151D0548F4C601801B910B8D
:1053B000E92CFA2CCB2DD82D860103C0C8018C19FD
:1053C0009D09893E934008F068C0C630D10508F4B5
:1053D00064C0EC16FD0620F4CE018E199F0903C0AF
:1053E000C7018C1B9D0B23E0E216F10420F08436EC
:1053F000910508F452C0C832D10538F0C801875968
:1054000091098938914158F148C015B88091CE0171
:1054100084B98091D30188B987B98091D7010E945E
:105420000C1B7C018091CD0184B98091D40188B995
:1054300087B98091D6010E940C1B9C01C70164E1D1
:1054400070E00E948C3DC701861B970B8217930763
:10545000A8F66E0D7F1D2617370780F61EC08091B7
:105460000601882311F08A3019F484E18093060143
:1054700080910B0196E0899FF0011124E758FE4FBF
:105480009091C70190839091C80191831383028307
:10549000D583C4838F5F80930B01CDB7DEB7ECE07B
:1054A0000C943E3E209107018091AE019091AD0198
:1054B00020FF03C0682F892F01C0692F0E94402957
:1054C000892B49F010920601109207018091080182
:1054D0008E7F809308010895A0E0B0E0E2E7FAE251
:1054E0000C94233E282F2170922E80FF06C010912D
:1054F000CD01C091D30100E105C01091CE01C09152
:10550000D40101E1C7708091D801806480937C0050
:105510000E94A93BDAE0C12CD12C7601AA24AA94DE
:1055200083E0B82EA895602F8091CF010E94CD1CFA
:105530008091D201812B84B9992021F086B18C23EE
:10554000E9F703C086B18C23E9F314B980917A009E
:10555000806480937A0080917A0086FDFCCF8091F0
:10556000780090917900992029F0C80ED91EE11C8D
:10557000F11C07C09501281B390BC21AD30AE10898
:10558000F108D15079F6C701B6012AE030E040E0D9
:1055900050E00E94D63DA091A501B091A6010E94C5
:1055A000113E20E034E040E050E00E94D63D3093D0
:1055B000B6012093B50180E48093A201CDB7DEB798
:1055C000EBE00C943F3EA0E0B0E0E9EEFAE20C9490
:1055D000263E182F8091CF011130D1F49091D30144
:1055E00097B998B99091CE01982B94B985B98091CB
:1055F000D7010E940C1B7C01C091A501D091A6018E
:105600008091D8010E94AB1A9E01281B390B18C04B
:1056100018B89091D40197B99091CD0195B9892B83
:1056200084B9E090A501F090A6018091D6010E9476
:105630000C1BE81AF90A8091D8010E94AB1A9C0150
:105640002115310511F421E030E0C701821B930BD5
:10565000B9010E948C3D6B01E12CF12C2031310508
:1056600008F057C08091D2011130D1F49091CE0151
:10567000982B94B985B98091D7010E940C1B8C019D
:10568000C091A501D091A6018091D8010E94AB1ACA
:10569000FE01E81BF90BC091D901D091DA0117C0C6
:1056A0009091CD01892B84B90091A5011091A6019B
:1056B0008091D6010E940C1B081B190B8091D80108
:1056C0000E94AB1AFC01C091DB01D091DC01309744
:1056D00011F4E1E0F0E0D80120EF3BE247E050E0D8
:1056E0000E94113E9F0140E050E00E94B43DAAE0BC
:1056F000B0E00E94113E9E012057354E40E050E040
:105700000E94B43DC216D306E406F50610F4690102
:105710007A01C701B601CDB7DEB7E8E00C94423E8E
:10572000A0E0B0E0E6E9FBE20C941E3EF82E6B012F
:105730000E948A1B8091D20121E0F21226C0909132
:10574000CD01892B84B985B90E949B3BC091A501ED
:10575000D091A6018091D6010E94AB1AC81BD90B2B
:105760000091A5011091A6018091D8010E94AB1A69
:10577000F801E81BF90BA090DB01B090DC0188E494
:105780009DE02DEF39E011E017C09091CE01892BFB
:1057900084B98091D7010E940C1BEC018091D80143
:1057A0000E94AB1AFC01A090D901B090DA0180ED03
:1057B00097E021ED33E012E02E173F0708F0CDC04F
:1057C000809106018E31D9F4809107019F2D982395
:1057D00011F484600CC031E0F3120BC09091AD0164
:1057E0008091C701981305C0F092060182E0809372
:1057F00007018091080181608093080105C08EE156
:1058000080930601F0920701CC16DD0610F4CC1946
:10581000DD09DE0120EF3BE247E050E00E94113E4F
:105820009F0140E050E00E94B43DAAE0B0E00E9439
:10583000113E95012057354E40E050E00E94B43DA6
:1058400029013A018F2D0E94E32A4B015C01461683
:1058500057066806790620F053014201C1E001C0F5
:10586000C2E04090B9015090BA016090BB017090C5
:10587000BC0181E040E0F81205C06091C90180914F
:10588000C80104C06091C7018091C9010E94062827
:105890000E94821B8091070182FF1EC0009152016D
:1058A0001091530120915401309155016091C20132
:1058B0007091C3018091C4019091C501E0905101A4
:1058C0004091C6010E940D12813009F4DBC08F2D7A
:1058D00084608093070106C0481459046A047B045D
:1058E00008F0D0C080E00E94DD288092B90190923B
:1058F000BA01A092BB01B092BC01C093B2018091E9
:10590000520190915301A0915401B091550180939F
:10591000C2019093C301A093C401B093C5018091CB
:1059200051018093C6018091C9018093AC0180919F
:10593000C7019091C80121E0F21207C08093AD0128
:105940009093AE0110920F019DC09093AD01809392
:10595000AE0181E080930F0195C031E6C316D104FA
:1059600008F090C08C179D0708F08CC08091D6017C
:105970000E94AB1A6C018091D7010E94AB1A96016C
:10598000281B390BC9012A3F3105C0F52FE12093AF
:105990000601212F246120930701113041F4A091C9
:1059A000DB01B091DC01A057B54E22E007C0A09109
:1059B000D901B091DA01A057B54E23E020930F0131
:1059C0004AE0489F9001499F300D11240E94FB3D01
:1059D0009E0140E050E00E94B43D8091DD01909135
:1059E000DE018217930718F4281B390B02C020E050
:1059F00030E03093B4012093B3010EC080E2809375
:105A00000601812F846080930701113011F488E032
:105A100001C089E080930F01812F0E946C2A809140
:105A200008018160809308018091C9018093AC01D5
:105A30009091C7012091C801113029F49093AD01D4
:105A40002093AE0104C02093AD019093AE0140E0DD
:105A50006091AE010E9406288091520190915301FD
:105A6000A0915401B09155018093C2019093C3015C
:105A7000A093C401B093C501809151018093C601E8
:105A80000E94821BCDB7DEB7E0E10C943A3EA0E065
:105A9000B0E0EDE4FDE20C94243E8B3E914028F012
:105AA00098EEE92EFF24F39403C088E2E82EF12C4F
:105AB0009091CE018091D201892B84B98091D70138
:105AC0000E94151B6C018091D20185B98091D7018C
:105AD0000E94151B5C01C7018C0D9D1D8A159B053D
